S0120000436F6E74726F6C6C65722E73726563EE
S113000045C0000060C000005EC000005CC000008D
S11300105AC0000058C0000056C0000054C0000080
S113002052C0000050C000004EC000004CC0000090
S11300304AC0000030C4000046C0000044C00000B4
S113004042C0000040C000003EC000003CC00000B0
S11300503AC0000038C0000036C0000034C00000C0
S113006032C0000030C000002EC000002CC00000D0
S11300702AC0000028C0000026C0000024C00000E0
S113008022C0000020C000001EC0000011241FBEBA
S1130090CFEFD0E4DEBFCDBF11E0A0E0B1E0E6E7F2
S11300A0FFE000E00BBF02C007900D92A034B1073F
S11300B0D9F727E0A0E4B1E001C01D92A238B2074D
S11300C0E1F77CD256C79CCFCF93DF93EC0136D5B2
S11300D02091400130914101C9018C0F9D1F8C3D3D
S11300E045E0940758F42817390758F4E901CE5B22
S11300F0DE4F909341018093400105C0C0E0D0E001
S113010002C0C0E0D0E0E1D5CE01DF91CF910895E7
S11301100895FC010396928381832FEF3FEF34838C
S11301202383968385839087878310820895FC01B7
S1130130118610860895CF93DF93FC01DB012181A2
S11301403281E9018A819B8113969C938E93129745
S11301508181928115969C938E9314978A819B81B9
S1130160EC017D836C83E9017B836A837283618301
S11301701996FC93EE93189780818F5F8083DF91AB
S1130180CF910895CF93DF93EB01488159814F3F7D
S11301902FEF520731F4DC011796ED91FC9118977B
S11301A017C0FC013396DC0115962D913C911697EE
S11301B0D9012D913C914217530750F00280F381ED
S11301C0E02DA281B3812D913C9142175307B0F7E2
S11301D0A281B381BB83AA831596DC93CE93149733
S11301E0FD83EC83D383C28399878887FC012081B4
S11301F02F5F2083DF91CF910895FC01A281B38109
S11302008481958115969C938E931497A481B581CE
S11302108281938113969C938E931297A085B185C6
S113022011968D919C911297E817F90731F4848106
S1130230958112969C938E931197118610868C91BA
S113024081508C93089580E480937C0087E88093A8
S11302507A000895ECE7F0E09081987F8770892B0D
S11302608083EAE7F0E0808180648083808186FD7A
S1130270FDCF80917800909179000895813081F0CC
S1130280E1ECF0E0808188618083E2ECF0E0808141
S11302908660808383E38093C4001092C500089530
S11302A0E9ECF0E0808188618083EAECF0E0808111
S11302B08660808383E38093CC001092CD00089500
S11302C0613041F0E0ECF0E0908195FFFDCF809348
S11302D0C6000895E8ECF0E0908195FFFDCF80938F
S11302E0CE00089580917F07811152C0B3DF9093AF
S11302F02307809322079C01255432402B38310573
S113030038F480911E07887F816080931E0740C067
S11303109C01215D32402B38310538F480911E0751
S1130320887F826080931E0733C08D3523E0920757
S113033038F080911E07887F836080931E0728C051
S11303409C012F543140253A310538F480911E0721
S1130350887F856080931E071BC09C01285A310941
S1130360263A310538F480911E07887F8660809391
S11303701E070EC0873A910530F480911E078760EE
S113038080931E0705C080911E07887F80931E07F7
S113039080917F07811110927F07089510927F0743
S11303A0A1DF82E090E012D5FBCFAF92BF92CF9253
S11303B0DF92EF92FF920F93A12CB12CC12CD12C80
S11303C0E12CF12C082F20E030E045E550E062E01C
S11303D071E08EEC91E096D20F91FF90EF90DF9058
S11303E0CF90BF90AF90089580918007811120C075
S11303F081E030DF9093210780932007853422E049
S1130400920738F080911E07877E806180931E07D3
S11304100FC0843F914038F480911E07877E886026
S113042080931E0705C080911E07877E80931E0758
S1130430809180078111109280070895109280079F
S1130440D3DF8FE090E0C2D4FBCFAF92BF92CF92C4
S1130450DF92EF92FF920F93A12CB12CC12CD12CDF
S1130460E12CF12C082F20E030E045E550E06DE070
S113047071E08EE192E046D20F91FF90EF90DF9011
S1130480CF90BF90AF90089580918107882319F091
S1130490813001F126C083B1809581FF24C0809111
S11304A01F07882349F010921F0780911E078F7D34
S11304B080931E0718B80AC081E080931F078091BB
S11304C01E07806280931E078FEF88B981E08093B6
S11304D08107089583B1809581FD05C0109281073D
S11304E0089510928107089510928107CDDF8FE05F
S11304F090E06CD4FBCFAF92BF92CF92DF92EF9299
S1130500FF920F93A12CB12CC12CD12CE12CF12CF6
S1130510082F20E030E045E550E06DE171E084E72C
S113052092E0F0D10F91FF90EF90DF90CF90BF90C9
S1130530AF90089580917E07882319F0813049F0A7
S11305400FC08091C00085FF12C081E080937E07B8
S11305500AC08091C00086FF06C010927E070895ED
S113056010927E07089560E080911E07A9CE089539
S113057010927E07DFDF85E090E028D4FBCFAF92B6
S1130580BF92CF92DF92EF92FF920F93A12CB12CE6
S1130590C12CD12CE12CF12C082F20E030E045E5D2
S11305A050E06BE271E088EB92E0ACD10F91FF90E8
S11305B0EF90DF90CF90BF90AF90089511B88FEF78
S11305C082B914B885B987B918B83DDE80E056DE23
S11305D081E0EBDE81E039DF81E08DDF81E0CFDF98
S11305E084D280E090E0089531E1FC0130833197BA
S11305F022E220833197A3E3A0833197608331976C
S1130600708331971082319760E86083319710824C
S1130610319762E06083319763E06083319764E0EF
S11306206083319765E06083319766E0608331973A
S113063067E06083319768E06083319769E06083A5
S1130640319760E1608331973083319732E13083B1
S1130650319733E13083319734E13083319735E199
S11306603083319736E13083319737E130833197E6
S113067038E13083319739E13083319730E2308388
S1130680319731E2308331972083319723E22083FD
S11306903197408331975083319726E220833197F5
S11306A027E22083319728E22083319729E22083AF
S11306B0319720E32083319721E32083869708959F
S11306C0109289008CE7809388008BE080938100EE
S11306D0EFE6F0E0808182608083A0917C07B09196
S11306E07D07CD91CDBFDD91DEBFFF91EF91DF910D
S11306F0CF91BF91AF919F918F917F916F915F91B6
S11307004F913F912F911F910F91FF90EF90DF90A8
S1130710CF90BF90AF909F908F907F906F905F909D
S11307204F903F902F901F900F900FBE0F90089501
S113073081E008950F920FB6F8940F921F9211243E
S11307402F923F924F925F926F927F928F929F92DD
S1130750AF92BF92CF92DF92EF92FF920F931F93CB
S11307602F933F934F935F936F937F938F939F93B5
S1130770AF93BF93CF93DF93EF93FF93A0917C0745
S1130780B0917D070DB60D920EB60D9270D3A09167
S11307907C07B0917D07CD91CDBFDD91DEBFFF9188
S11307A0EF91DF91CF91BF91AF919F918F917F9105
S11307B06F915F914F913F912F911F910F91FF90F6
S11307C0EF90DF90CF90BF90AF909F908F907F90ED
S11307D06F905F904F903F902F901F900F900FBE9F
S11307E00F9008950F920FB6F8940F921F92112450
S11307F02F923F924F925F926F927F928F929F922D
S1130800AF92BF92CF92DF92EF92FF920F931F931A
S11308102F933F934F935F936F937F938F939F9304
S1130820AF93BF93CF93DF93EF93FF93A0917C0794
S1130830B0917D070DB60D920EB60D9285D117D3EA
S1130840A0917C07B0917D07CD91CDBFDD91DEBF36
S1130850FF91EF91DF91CF91BF91AF919F918F91D4
S11308607F916F915F914F913F912F911F910F91C4
S1130870FF90EF90DF90CF90BF90AF909F908F90BC
S11308807F906F905F904F903F902F901F900F90AC
S11308900FBE0F900895A6DF1895CF93DF93EC0158
S11308A0E0917C07F0917D079383828380912C07EC
S11308B090912D07C817D90760F460917C07709157
S11308C07D0780914207909143076E5F7F4F5ADC0A
S11308D016C060917C0770917D07809144079091C8
S11308E045076E5F7F4F4EDC8091000190910101BE
S11308F0C817D90720F4D0930101C0930001DF91F8
S1130900CF9108954F925F926F927F928F929F92B0
S1130910AF92BF92CF92DF92EF92FF920F931F9309
S1130920CF93DF935C014B013A01290181E290E00E
S1130930CBDBEC01892B09F4C6C0C114D10409F046
S1130940BEC0C301C1DB988F8F8B009719F4CE0111
S1130950DFDBB9C0A30165EA70E0F5D29301215051
S113096031098F89988D3C01620E731E48E050E076
S1130970B401CE014996EED218A2102F043008F02B
S113098013E01E8B6E0182E0C80ED11CC601CFDBC2
S1130990CE010C96CCDBD987C88784E090E0811B1C
S11309A091099D878C87DB8BCA8BA201B501C3019A
S11309B01BDE99838883E114F10419F0F701D183D4
S11309C0C0830FB6F8940F9280912E078F5F8093A7
S11309D02E0780917C0790917D07892B69F5D09330
S11309E07D07C0937C0780912E078130A1F588E5AF
S11309F097E08FDB81E697E08CDB8AE697E089DB82
S1130A0083E797E086DB8FE497E083DB86E497E077
S1130A1080DB89E397E07DDB80E397E07ADB8FE49A
S1130A2097E0909345078093440786E497E090937A
S1130A304307809342070FC08091290781110BC09F
S1130A40E0917C07F0917D078689081720F0D09308
S1130A507D07C0937C078E8990912B07981710F41B
S1130A6080932B07909124079F5F90932407909184
S1130A702A07981710F480932A0790E09C01220F0C
S1130A80331F220F331F220F331F820F931FB60110
S1130A90885A984F50DB0F900FBE80912907882306
S1130AA051F0E0917C07F0917D078689801728F446
S1130AB041DE81E009C081E007C081E005C0D88E35
S1130AC0CF8AC60147CF8FEFDF91CF911F910F914E
S1130AD0FF90EF90DF90CF90BF90AF909F908F905A
S1130AE07F906F905F904F900895AF92BF92CF9296
S1130AF0DF92EF92FF920F93A12CB12CC12CD12C39
S1130B00E12CF12C00E020E030E045E550E06BE31F
S1130B1071E081E097E0F6DE813041F4F89480934F
S1130B20290710922D0710922C07CADD0F91FF9010
S1130B30EF90DF90CF90BF90AF90089580912807F9
S1130B408F5F8093280708950F931F93CF93DF93AC
S1130B50809128078111AFC080912C0790912D07B7
S1130B60019690932D0780932C0780912C079091E8
S1130B702D07892B99F58091440790914507209181
S1130B8042073091430730934507209344079093DD
S1130B90430780934207809125078F5F8093250741
S1130BA0E0914407F09145078081811107C08FEFE0
S1130BB09FEF909301018093000110C0E0914407DE
S1130BC0F09145070580F681E02D0680F781E02D40
S1130BD082819381909301018093000120912C07DD
S1130BE030912D0780910001909101012817390758
S1130BF008F466C0E0914407F0914507808188239A
S1130C0099F0E0914407F09145070580F681E02DC5
S1130C10C681D7818A819B8120912C0730912D0731
S1130C2028173907F8F419C08FEF9FEF909301014B
S1130C308093000145C0E0914407F0914507058089
S1130C40F681E02DC681D7818A819B8120912C0772
S1130C5030912D072817390728F4909301018093C8
S1130C6000012EC08E010E5F1F4FC801C6DA8C89A9
S1130C709D89892B19F0CE010C96BFDA8E8990914B
S1130C802A07981710F480932A0790E09C01220FFA
S1130C90331F220F331F220F331F820F931FB801FC
S1130CA0885A984F48DAE0914407F09145078081CB
S1130CB08111C1CFB9CF809127078F5F8093270718
S1130CC0DF91CF911F910F910895CF92DF92EF9210
S1130CD0FF920F931F93CF93DF930FB6F8940F9265
S1130CE080912807815080932807809128078111DB
S1130CF05FC080912E0781112FC05DC0D70115966A
S1130D00ED91FC911697C681D781CE010C9675DAC8
S1130D108E010E5F1F4FC80170DA8E8990912A07E9
S1130D20981710F480932A0790E09C01220F331F38
S1130D30220F331F220F331F820F931FB801885ACB
S1130D40984FF9D9E0917C07F0917D079E898689B7
S1130D50981758F0DC2C09C0D12C0F2EF9E3EF2E94
S1130D60F7E0FF2EF02DCC24C394F701808181118C
S1130D70C5CF80912707882379F08091270788239E
S1130D8091F0E2DE809127078150809327078091BC
S1130D9027078111F6CF07C0F1E0DF1621F080911B
S1130DA02607813039F410922607C4DC81E003C0A1
S1130DB080E001C080E00F900FBEDF91CF911F91C2
S1130DC00F91FF90EF90DF90CF900895CF93DF9332
S1130DD0EC01892B91F0B2DE80912C0790912D07C4
S1130DE0C80FD91F80917C0790917D07029605DA80
S1130DF0CE0153DD6ADF811101C09CDCDF91CF910C
S1130E0008950F2EF0E3EF2EF7E0FF2EF02DC8E546
S1130E10D7E080912F07882329F190DED7011C9118
S1130E2054DF1123F9F00FB6F8940F92D7011596F9
S1130E30ED91FC91169706811781C8010296DDD9C0
S1130E4080912E07815080932E0780912F07815027
S1130E5080932F070F900FBEF8018789908D58D982
S1130E60C80156D988818230A0F264DCD2CF809147
S1130E702807811113C080912A0790E0FC01EE0F2E
S1130E80FF1FEE0FFF1FEE0FFF1F8E0F9F1FFC01B2
S1130E90E85AF84F8081882329F01BC081E08093B1
S1130EA02607089580912A07815080932A0780910C
S1130EB02A0790E0FC01EE0FFF1FEE0FFF1FEE0F5D
S1130EC0FF1F8E0F9F1FFC01E85AF84F8081882373
S1130ED049F380912A0790E09C01220F331F220FCF
S1130EE0331F220F331F280F391FD901A85AB84FB7
S1130EF01196ED91FC9112970280F381E02D1296E8
S1130F00FC93EE931197255A384FE217F30729F40F
S1130F1022813381FD0132832183FC01EE0FFF1F07
S1130F20EE0FFF1FEE0FFF1F8E0F9F1FFC01E85AED
S1130F30F84F0180F281E02D8681978190937D079F
S1130F4080937C070895DC0101C06D9341505040AB
S1130F50E0F70895FB01DC014150504048F0019056
S1130F600D920020C9F701C01D9241505040E0F796
S1090F700895F894FFCF80
S1130F76FFFF4A4F595365635461736B00535445DD
S1130F864552494E475365635461736B0042555449
S1130F96544F4E5365635461736B005452414E5320
S1130FA64D49545365635461736B0049444C450081
S9030000FC
