:1000000045C0000060C000005EC000005CC0000091
:100010005AC0000058C0000056C0000054C0000084
:1000200052C0000050C000004EC000004CC0000094
:100030004AC0000057C3000046C0000044C0000092
:1000400042C0000040C000003EC000003CC00000B4
:100050003AC0000038C0000036C0000034C00000C4
:1000600032C0000030C000002EC000002CC00000D4
:100070002AC0000028C0000026C0000024C00000E4
:1000800022C0000020C000001EC0000011241FBEBE
:10009000CFEFD0E4DEBFCDBF11E0A0E0B1E0E4ECF3
:1000A000FDE000E00BBF02C007900D92A632B10741
:1000B000D9F727E0A6E2B1E001C01D92A636B2074B
:1000C000E1F7ABD17DC69CCFCF93DF93EC015DD43C
:1000D0002091260130912701C9018C0F9D1F8C3D75
:1000E00045E0940758F42817390758F4E901C85D2A
:1000F000DE4F909327018093260105C0C0E0D0E039
:1001000002C0C0E0D0E008D5CE01DF91CF910895C4
:100110000895FC010396928381832FEF3FEF348390
:100120002383968385839087878310820895FC01BB
:10013000118610860895CF93DF93FC01DB012181A6
:100140003281E9018A819B8113969C938E93129749
:100150008181928115969C938E9314978A819B81BD
:10016000EC017D836C83E9017B836A837283618305
:100170001996FC93EE93189780818F5F8083DF91AF
:10018000CF910895CF93DF93EB01488159814F3F81
:100190002FEF520731F4DC011796ED91FC9118977F
:1001A00017C0FC013396DC0115962D913C911697F2
:1001B000D9012D913C914217530750F00280F381F1
:1001C000E02DA281B3812D913C9142175307B0F7E6
:1001D000A281B381BB83AA831596DC93CE93149737
:1001E000FD83EC83D383C28399878887FC012081B8
:1001F0002F5F2083DF91CF910895FC01A281B3810D
:100200008481958115969C938E931497A481B581D2
:100210008281938113969C938E931297A085B185CA
:1002200011968D919C911297E817F90731F484810A
:10023000958112969C938E931197118610868C91BE
:1002400081508C93089580E480937C0087E88093AC
:100250007A000895ECE7F0E09081987F8770892B11
:100260008083EAE7F0E0808180648083808186FD7E
:10027000FDCF809178009091790008958091650775
:1002800081112BC081E0E6DF90930507809304077E
:100290008B3322E0920750F0109209071092000170
:1002A00081E0809308078093070717C0843F91403F
:1002B00058F481E08093090710920001109208071A
:1002C00082E08093070709C010920907109208077F
:1002D00081E08093000110920707809165078111EA
:1002E00010926507089510926507C8DF84E190E0D9
:1002F00094D4FBCFAF92BF92CF92DF92EF92FF9256
:100300000F93A12CB12CC12CD12CE12CF12C082F56
:1003100020E030E045E550E063E071E083E791E004
:1003200018D20F91FF90EF90DF90CF90BF90AF90D9
:10033000089580916407882319F08130C1F036C098
:1003400080910807811104C080910907882359F022
:1003500081E0809364071092060785B98091640755
:10036000813039F1089515B810926407089580918D
:10037000060790910707891778F490910807911163
:1003800004C090910907992339F08F5F8093060785
:1003900081E0809364070DC010920807109200015D
:1003A0001092090715B81092640708951092640717
:1003B000089580910001882349F010920807109257
:1003C00000011092090715B8109264070895109261
:1003D0006407AFDF81E090E020D4FBCFAF92BF9203
:1003E000CF92DF92EF92FF920F93A12CB12CC12CF0
:1003F000D12CE12CF12C082F20E030E045E550E035
:1004000063E171E087EE91E0A4D10F91FF90EF904E
:10041000DF90CF90BF90AF90089511B88FEF82B961
:1004200084B915B810DF81E065DF81E0D7DF84D2C1
:1004300080E090E0089531E1FC013083319722E2C1
:1004400020833197A3E3A083319760833197708332
:1004500031971082319760E860833197108231972D
:1004600062E06083319763E06083319764E060838A
:10047000319765E06083319766E06083319767E08C
:100480006083319768E06083319769E060833197DA
:1004900060E1608331973083319732E13083319767
:1004A00033E13083319734E13083319735E1308364
:1004B000319736E13083319737E13083319738E136
:1004C0003083319739E13083319730E2308331978F
:1004D00031E2308331972083319723E220833197B3
:1004E000408331975083319726E22083319727E26A
:1004F0002083319728E22083319729E220833197A6
:1005000020E32083319721E320838697089510927A
:1005100089008CE7809388008BE080938100EFE670
:10052000F0E0808182608083A0916207B0916307D0
:10053000CD91CDBFDD91DEBFFF91EF91DF91CF91E6
:10054000BF91AF919F918F917F916F915F914F91EB
:100550003F912F911F910F91FF90EF90DF90CF90DF
:10056000BF90AF909F908F907F906F905F904F90D3
:100570003F902F901F900F900FBE0F90089581E035
:1005800008950F920FB6F8940F921F9211242F9294
:100590003F924F925F926F927F928F929F92AF9213
:1005A000BF92CF92DF92EF92FF920F931F932F9300
:1005B0003F934F935F936F937F938F939F93AF93EB
:1005C000BF93CF93DF93EF93FF93A0916207B09116
:1005D00063070DB60D920EB60D9270D3A09162070F
:1005E000B0916307CD91CDBFDD91DEBFFF91EF915B
:1005F000DF91CF91BF91AF919F918F917F916F913B
:100600005F914F913F912F911F910F91FF90EF902C
:10061000DF90CF90BF90AF909F908F907F906F9022
:100620005F904F903F902F901F900F900FBE0F90B4
:1006300008950F920FB6F8940F921F9211242F92E3
:100640003F924F925F926F927F928F929F92AF9262
:10065000BF92CF92DF92EF92FF920F931F932F934F
:100660003F934F935F936F937F938F939F93AF933A
:10067000BF93CF93DF93EF93FF93A0916207B09165
:1006800063070DB60D920EB60D9285D117D3A091CA
:100690006207B0916307CD91CDBFDD91DEBFFF91C1
:1006A000EF91DF91CF91BF91AF919F918F917F910A
:1006B0006F915F914F913F912F911F910F91FF90FB
:1006C000EF90DF90CF90BF90AF909F908F907F90F2
:1006D0006F905F904F903F902F901F900F900FBEA4
:1006E0000F900895A6DF1895CF93DF93EC01E0916A
:1006F0006207F09163079383828380911207909140
:100700001307C817D90760F46091620770916307F7
:1007100080912807909129076E5F7F4F33DD16C0C7
:10072000609162077091630780912A0790912B076F
:100730006E5F7F4F27DD8091010190910201C81704
:10074000D90720F4D0930201C0930101DF91CF912A
:1007500008954F925F926F927F928F929F92AF9285
:10076000BF92CF92DF92EF92FF920F931F93CF939E
:10077000DF935C014B013A01290181E290E0A4DCA6
:10078000EC01892B09F4C6C0C114D10409F0BEC024
:10079000C3019ADC988F8F8B009719F4CE01B8DCD7
:1007A000B9C0A30165EA70E0F5D293012150310987
:1007B0008F89988D3C01620E731E48E050E0B401B1
:1007C000CE014996EED218A2102F043008F013E0A3
:1007D0001E8B6E0182E0C80ED11CC601A8DCCE01C2
:1007E0000C96A5DCD987C88784E090E0811B91092D
:1007F0009D878C87DB8BCA8BA201B501C3011BDEF1
:1008000099838883E114F10419F0F701D183C0833F
:100810000FB6F8940F92809114078F5F809314079E
:100820008091620790916307892B69F5D0936307E4
:10083000C0936207809114078130A1F58EE397E0A1
:1008400068DC87E497E065DC80E597E062DC89E5B9
:1008500097E05FDC85E397E05CDC8CE297E059DCB5
:100860008FE197E056DC86E197E053DC85E397E083
:1008700090932B0780932A078CE297E090932907A7
:10088000809328070FC080910F0781110BC0E09162
:100890006207F09163078689081720F0D0936307F9
:1008A000C09362078E8990911107981710F4809376
:1008B000110790910A079F5F90930A079091100784
:1008C000981710F48093100790E09C01220F331FBB
:1008D000220F331F220F331F820F931FB601825C3A
:1008E000984F29DC0F900FBE80910F07882351F09D
:1008F000E0916207F09163078689801728F441DE52
:1009000081E009C081E007C081E005C0D88ECF8AB0
:10091000C60147CF8FEFDF91CF911F910F91FF90CD
:10092000EF90DF90CF90BF90AF909F908F907F908F
:100930006F905F904F900895AF92BF92CF92DF92E9
:10094000EF92FF920F93A12CB12CC12CD12CE12C52
:10095000F12C00E020E030E045E550E060E271E09D
:1009600088E296E0F6DE813041F4F89480930F0738
:100970001092130710921207CADD0F91FF90EF90AB
:10098000DF90CF90BF90AF90089580910E078F5F5A
:1009900080930E0708950F931F93CF93DF93809159
:1009A0000E078111AFC08091120790911307019635
:1009B0009093130780931207809112079091130769
:1009C000892B99F580912A0790912B072091280770
:1009D0003091290730932B0720932A0790932907FA
:1009E0008093280780910B078F5F80930B07E0911E
:1009F0002A07F0912B078081811107C08FEF9FEFAD
:100A0000909302018093010110C0E0912A07F091B8
:100A10002B070580F681E02D0680F781E02D82818D
:100A200093819093020180930101209112073091EC
:100A3000130780910101909102012817390708F4EA
:100A400066C0E0912A07F0912B078081882399F0F6
:100A5000E0912A07F0912B070580F681E02DC681F1
:100A6000D7818A819B812091120730911307281723
:100A70003907F8F419C08FEF9FEF9093020180932C
:100A8000010145C0E0912A07F0912B070580F6810E
:100A9000E02DC681D7818A819B81209112073091F8
:100AA00013072817390728F4909302018093010156
:100AB0002EC08E010E5F1F4FC8019FDB8C899D8960
:100AC000892B19F0CE010C9698DB8E899091100736
:100AD000981710F48093100790E09C01220F331FA9
:100AE000220F331F220F331F820F931FB801825C26
:100AF000984F21DBE0912A07F0912B07808181112B
:100B0000C1CFB9CF80910D078F5F80930D07DF9123
:100B1000CF911F910F910895CF92DF92EF92FF92A4
:100B20000F931F93CF93DF930FB6F8940F9280919A
:100B30000E07815080930E0780910E0781115FC0D0
:100B40008091140781112FC05DC0D7011596ED91DA
:100B5000FC911697C681D781CE010C964EDB8E0193
:100B60000E5F1F4FC80149DB8E89909110079817BF
:100B700010F48093100790E09C01220F331F220F86
:100B8000331F220F331F820F931FB801825C984FCF
:100B9000D2DAE0916207F09163079E8986899817FF
:100BA00058F0DC2C09C0D12C0F2EFFE1EF2EF7E01E
:100BB000FF2EF02DCC24C394F70180818111C5CF85
:100BC00080910D07882379F080910D07882391F09B
:100BD000E2DE80910D07815080930D0780910D0713
:100BE0008111F6CF07C0F1E0DF1621F080910C07EC
:100BF000813039F410920C07C4DC81E003C080E03E
:100C000001C080E00F900FBEDF91CF911F910F9137
:100C1000FF90EF90DF90CF900895CF93DF93EC019A
:100C2000892B91F0B2DE8091120790911307C80FC3
:100C3000D91F80916207909163070296DEDACE0198
:100C400053DD6ADF811101C09CDCDF91CF910895F3
:100C50000F2EF6E1EF2EF7E0FF2EF02DCEE3D7E0DA
:100C600080911507882329F190DED7011C9154DF6C
:100C70001123F9F00FB6F8940F92D7011596ED9164
:100C8000FC91169706811781C8010296B6DA809109
:100C90001407815080931407809115078150809329
:100CA00015070F900FBEF8018789908D31DAC801C2
:100CB0002FDA88818230A0F264DCD2CF80910E07D7
:100CC000811113C08091100790E0FC01EE0FFF1F0F
:100CD000EE0FFF1FEE0FFF1F8E0F9F1FFC01E25C48
:100CE000F84F8081882329F01BC081E080930C0796
:100CF000089580911007815080931007809110070C
:100D000090E0FC01EE0FFF1FEE0FFF1FEE0FFF1F25
:100D10008E0F9F1FFC01E25CF84F8081882349F30E
:100D20008091100790E09C01220F331F220F331F88
:100D3000220F331F280F391FD901A25CB84F11961B
:100D4000ED91FC9112970280F381E02D1296FC93B5
:100D5000EE9311972F5B384FE217F30729F42281A6
:100D60003381FD0132832183FC01EE0FFF1FEE0F63
:100D7000FF1FEE0FFF1F8E0F9F1FFC01E25CF84F5D
:100D80000180F281E02D86819781909363078093A3
:100D900062070895DC0101C06D9341505040E0F7B7
:100DA0000895FB01DC014150504048F001900D9244
:100DB0000020C9F701C01D9241505040E0F708954E
:040DC000F894FFCFD5
:100DC40001FFFF5354454552494E475365635461EF
:100DD400736B00534552564F5365635461736B00F4
:060DE40049444C450000EB
:00000001FF
