S0120000536572766F4D6F746F722E73726563F2
S113000045C0000060C000005EC000005CC000008D
S11300105AC0000058C0000056C0000054C0000080
S113002052C0000050C000004EC000004CC0000090
S11300304AC000006AC3000046C0000044C000007B
S113004042C0000040C000003EC000003CC00000B0
S11300503AC0000038C0000036C0000034C00000C0
S113006032C0000030C000002EC000002CC00000D0
S11300702AC0000028C0000026C0000024C00000E0
S113008022C0000020C000001EC0000011241FBEBA
S1130090CFEFD0E4DEBFCDBF11E0A0E0B1E0EAEEE7
S11300A0FDE000E00BBF02C007900D92A432B1073F
S11300B0D9F727E0A4E2B1E001C01D92A136B2074E
S11300C0E1F7BCD190C69CCFCF93DF93EC0170D401
S11300D02091240130912501C9018C0F9D1F8C3D75
S11300E045E0940758F42817390758F4E901CA5D24
S11300F0DE4F909325018093240105C0C0E0D0E039
S113010002C0C0E0D0E01BD5CE01DF91CF910895AD
S11301100895FC010396928381832FEF3FEF34838C
S11301202383968385839087878310820895FC01B7
S1130130118610860895CF93DF93FC01DB012181A2
S11301403281E9018A819B8113969C938E93129745
S11301508181928115969C938E9314978A819B81B9
S1130160EC017D836C83E9017B836A837283618301
S11301701996FC93EE93189780818F5F8083DF91AB
S1130180CF910895CF93DF93EB01488159814F3F7D
S11301902FEF520731F4DC011796ED91FC9118977B
S11301A017C0FC013396DC0115962D913C911697EE
S11301B0D9012D913C914217530750F00280F381ED
S11301C0E02DA281B3812D913C9142175307B0F7E2
S11301D0A281B381BB83AA831596DC93CE93149733
S11301E0FD83EC83D383C28399878887FC012081B4
S11301F02F5F2083DF91CF910895FC01A281B38109
S11302008481958115969C938E931497A481B581CE
S11302108281938113969C938E931297A085B185C6
S113022011968D919C911297E817F90731F4848106
S1130230958112969C938E931197118610868C91BA
S113024081508C93089580E4809390008BE0809398
S1130250910082EE94E09093990080939800089521
S113026080916007882321F0813009F453C073C062
S1130270009915C080B1809581FD11C080B1809531
S113028082FD0DC081E08093040710920307109251
S113029002079AE190930001809360070895009B00
S11302A015C080B1809581FF11C080B1809582FD19
S11302B00DC01092040781E0809303071092020797
S11302C093E190930001809360070895009B15C00B
S11302D080B1809581FD11C080B1809582FF0DC0F1
S11302E0109204071092030781E0809302079DE0B7
S11302F0909300018093600708951092040781E0B1
S113030080930307109202078DE0809300011092FE
S113031060070895009908C080B1809581FD04C0EC
S113032080B1809582FF19C0009B08C080B1809580
S113033081FF04C080B1809582FF0FC0009B08C07C
S113034080B1809581FD04C080B1809582FD05C097
S11303501092600708951092600708951092600744
S11303607FDF8AE090E06CD4FBCFAF92BF92CF9254
S1130370DF92EF92FF920F93A12CB12CC12CD12CC0
S1130380E12CF12C082F20E030E045E550E063E05B
S113039071E08EEA91E0F0D10F91FF90EF90DF9041
S11303A0CF90BF90AF90089580915F0781111AC0DC
S11303B080910407882329F080E485B981E08BB912
S11303C011C080910307882319F082E08BB90AC019
S11303D080910207882329F080E485B984E08BB9F1
S11303E001C01BB880915F07811110925F070895C7
S11303F010925F07D9DF81E090E022D4FBCFAF9267
S1130400BF92CF92DF92EF92FF920F93A12CB12C67
S1130410C12CD12CE12CF12C082F20E030E045E553
S113042050E061E171E088EF91E0A6D10F91FF9077
S1130430EF90DF90CF90BF90AF90089511B88FEFF9
S113044082B984B915B88AB91BB8FDDE81E08DDFA5
S113045081E0D5DF84D280E090E0089531E1FC01B1
S11304603083319722E220833197A3E3A08331972D
S113047060833197708331971082319760E860838D
S113048031971082319762E06083319763E0608333
S1130490319764E06083319765E06083319766E06B
S11304A06083319767E06083319768E060833197B8
S11304B069E06083319760E16083319730833197DD
S11304C032E13083319733E13083319734E1308343
S11304D0319735E13083319736E13083319737E115
S11304E03083319738E13083319739E13083319764
S11304F030E23083319731E2308331972083319772
S113050023E220833197408331975083319726E249
S11305102083319727E22083319728E22083319783
S113052029E22083319720E32083319721E320833C
S113053086970895109289008CE7809388008BE059
S113054080938100EFE6F0E0808182608083A09157
S11305505D07B0915E07CD91CDBFDD91DEBFFF9108
S1130560EF91DF91CF91BF91AF919F918F917F9147
S11305706F915F914F913F912F911F910F91FF9038
S1130580EF90DF90CF90BF90AF909F908F907F902F
S11305906F905F904F903F902F901F900F900FBEE1
S11305A00F90089581E008950F920FB6F8940F927A
S11305B01F9211242F923F924F925F926F927F92DB
S11305C08F929F92AF92BF92CF92DF92EF92FF925F
S11305D00F931F932F933F934F935F936F937F9347
S11305E08F939F93AF93BF93CF93DF93EF93FF9337
S11305F0A0915D07B0915E070DB60D920EB60D92F7
S113060070D3A0915D07B0915E07CD91CDBFDD9110
S1130610DEBFFF91EF91DF91CF91BF91AF919F9199
S11306208F917F916F915F914F913F912F911F9186
S11306300F91FF90EF90DF90CF90BF90AF909F907D
S11306408F907F906F905F904F903F902F901F906E
S11306500F900FBE0F9008950F920FB6F8940F925B
S11306601F9211242F923F924F925F926F927F922A
S11306708F929F92AF92BF92CF92DF92EF92FF92AE
S11306800F931F932F933F934F935F936F937F9396
S11306908F939F93AF93BF93CF93DF93EF93FF9386
S11306A0A0915D07B0915E070DB60D920EB60D9246
S11306B085D117D3A0915D07B0915E07CD91CDBFD1
S11306C0DD91DEBFFF91EF91DF91CF91BF91AF91AB
S11306D09F918F917F916F915F914F913F912F9156
S11306E01F910F91FF90EF90DF90CF90BF90AF904C
S11306F09F908F907F906F905F904F903F902F903E
S11307001F900F900FBE0F900895A6DF1895CF93FA
S1130710DF93EC01E0915D07F0915E0793838283A0
S113072080910D0790910E07C817D90760F4609166
S11307305D0770915E0780912307909124076E5F97
S11307407F4F20DD16C060915D0770915E07809138
S11307502507909126076E5F7F4F14DD809101017C
S113076090910201C817D90720F4D0930201C093D5
S11307700101DF91CF9108954F925F926F927F9222
S11307808F929F92AF92BF92CF92DF92EF92FF929D
S11307900F931F93CF93DF935C014B013A0129011F
S11307A081E290E091DCEC01892B09F4C6C0C1140C
S11307B0D10409F0BEC0C30187DC988F8F8B0097EA
S11307C019F4CE01A5DCB9C0A30165EA70E0F5D245
S11307D09301215031098F89988D3C01620E731E5B
S11307E048E050E0B401CE014996EED218A2102F91
S11307F0043008F013E01E8B6E0182E0C80ED11C99
S1130800C60195DCCE010C9692DCD987C88784E0BA
S113081090E0811B91099D878C87DB8BCA8BA20199
S1130820B501C3011BDE99838883E114F10419F037
S1130830F701D183C0830FB6F8940F9280910F070C
S11308408F5F80930F0780915D0790915E07892BDE
S113085069F5D0935E07C0935D0780910F078130DF
S1130860A1F589E397E055DC82E497E052DC8BE460
S113087097E04FDC84E597E04CDC80E397E049DCCB
S113088087E297E046DC8AE197E043DC81E197E088
S113089040DC80E397E0909326078093250787E266
S11308A097E090932407809323070FC080910A0751
S11308B081110BC0E0915D07F0915E0786890817EE
S11308C020F0D0935E07C0935D078E8990910C074A
S11308D0981710F480930C07909105079F5F9093ED
S11308E0050790910B07981710F480930B0790E07D
S11308F09C01220F331F220F331F220F331F820F3D
S1130900931FB601875C984F16DC0F900FBE809141
S11309100A07882351F0E0915D07F0915E0786890C
S1130920801728F441DE81E009C081E007C081E03E
S113093005C0D88ECF8AC60147CF8FEFDF91CF9104
S11309401F910F91FF90EF90DF90CF90BF90AF90E9
S11309509F908F907F906F905F904F900895AF928B
S1130960BF92CF92DF92EF92FF920F93A12CB12C02
S1130970C12CD12CE12CF12C00E020E030E045E545
S113098050E06EE171E08BE396E0F6DE813041F4F5
S1130990F89480930A0710920E0710920D07CADD8F
S11309A00F91FF90EF90DF90CF90BF90AF9008959C
S11309B0809109078F5F8093090708950F931F9310
S11309C0CF93DF93809109078111AFC080910D0708
S11309D090910E07019690930E0780930D078091D6
S11309E00D0790910E07892B99F580912507909119
S11309F0260720912307309124073093260720935C
S1130A0025079093240780932307809106078F5F1F
S1130A1080930607E0912507F091260780818111D4
S1130A2007C08FEF9FEF909302018093010110C0E4
S1130A30E0912507F09126070580F681E02D0680D8
S1130A40F781E02D828193819093020180930101CB
S1130A5020910D0730910E078091010190910201C0
S1130A602817390708F466C0E0912507F091260796
S1130A708081882399F0E0912507F091260705806D
S1130A80F681E02DC681D7818A819B8120910D0753
S1130A9030910E0728173907F8F419C08FEF9FEF2C
S1130AA0909302018093010145C0E0912507F091E4
S1130AB026070580F681E02DC681D7818A819B8136
S1130AC020910D0730910E072817390728F49093C9
S1130AD00201809301012EC08E010E5F1F4FC801D9
S1130AE08CDB8C899D89892B19F0CE010C9685DBD2
S1130AF08E8990910B07981710F480930B0790E060
S1130B009C01220F331F220F331F220F331F820F2A
S1130B10931FB801875C984F0EDBE0912507F09195
S1130B20260780818111C1CFB9CF809108078F5FDB
S1130B3080930807DF91CF911F910F910895CF9271
S1130B40DF92EF92FF920F931F93CF93DF930FB631
S1130B50F8940F928091090781508093090780913E
S1130B60090781115FC080910F0781112FC05DC0FB
S1130B70D7011596ED91FC911697C681D781CE01C8
S1130B800C963BDB8E010E5F1F4FC80136DB8E894E
S1130B9090910B07981710F480930B0790E09C0139
S1130BA0220F331F220F331F220F331F820F931F75
S1130BB0B801875C984FBFDAE0915D07F0915E075A
S1130BC09E898689981758F0DC2C09C0D12C0F2EE9
S1130BD0FAE1EF2EF7E0FF2EF02DCC24C394F701B9
S1130BE080818111C5CF80910807882379F0809195
S1130BF00807882391F0E2DE8091080781508093F2
S1130C000807809108078111F6CF07C0F1E0DF16CD
S1130C1021F080910707813039F410920707C4DC72
S1130C2081E003C080E001C080E00F900FBEDF913F
S1130C30CF911F910F91FF90EF90DF90CF90089587
S1130C40CF93DF93EC01892B91F0B2DE80910D07F5
S1130C5090910E07C80FD91F80915D0790915E0790
S1130C600296CBDACE0153DD6ADF811101C09CDC30
S1130C70DF91CF9108950F2EF1E1EF2EF7E0FF2ED3
S1130C80F02DC9E3D7E080911007882329F190DE85
S1130C90D7011C9154DF1123F9F00FB6F8940F9289
S1130CA0D7011596ED91FC91169706811781C8011D
S1130CB00296A3DA80910F07815080930F078091E9
S1130CC010078150809310070F900FBEF801878999
S1130CD0908D1EDAC8011CDA88818230A0F264DCAF
S1130CE0D2CF80910907811113C080910B0790E046
S1130CF0FC01EE0FFF1FEE0FFF1FEE0FFF1F8E0F05
S1130D009F1FFC01E75CF84F8081882329F01BC0FA
S1130D1081E080930707089580910B0781508093A9
S1130D200B0780910B0790E0FC01EE0FFF1FEE0F05
S1130D30FF1FEE0FFF1F8E0F9F1FFC01E75CF84F94
S1130D408081882349F380910B0790E09C01220F56
S1130D50331F220F331F220F331F280F391FD901CE
S1130D60A75CB84F1196ED91FC9112970280F38124
S1130D70E02D1296FC93EE931197245C384FE21702
S1130D80F30729F422813381FD0132832183FC019D
S1130D90EE0FFF1FEE0FFF1FEE0FFF1F8E0F9F1FA3
S1130DA0FC01E75CF84F0180F281E02D8681978198
S1130DB090935E0780935D070895DC0101C06D93F5
S1130DC041505040E0F70895FB01DC014150504090
S1130DD048F001900D920020C9F701C01D924150C6
S10D0DE05040E0F70895F894FFCFA7
S1130DEA13FFFF425554544F4E5365635461736B5A
S1130DFA00534552564F5365635461736B0049441B
S1070E0A4C4500004F
S9030000FC
