S0120000536572766F4D6F746F722E73726563F2
S113000045C0000060C000005EC000005CC000008D
S11300105AC0000058C0000056C0000054C0000080
S113002052C0000050C000004EC000004CC0000090
S11300304AC00000E4C3000046C0000044C0000001
S113004042C0000040C000003EC000003CC00000B0
S11300503AC0000038C0000036C0000034C00000C0
S113006032C0000030C000002EC000002CC00000D0
S11300702AC0000028C0000026C0000024C00000E0
S113008022C0000020C000001EC0000011241FBEBA
S1130090CFEFD0E4DEBFCDBF11E0A0E0B1E0EEEDE4
S11300A0FEE000E00BBF02C007900D92A432B1073E
S11300B0D9F727E0A4E2B1E001C01D92A436B2074B
S11300C0E1F739D20AC79CCFCF93DF93EC01EAD48E
S11300D02091240130912501C9018C0F9D1F8C3D75
S11300E045E0940758F42817390758F4E901CA5D24
S11300F0DE4F909325018093240105C0C0E0D0E039
S113010002C0C0E0D0E095D5CE01DF91CF91089533
S11301100895FC010396928381832FEF3FEF34838C
S11301202383968385839087878310820895FC01B7
S1130130118610860895CF93DF93FC01DB012181A2
S11301403281E9018A819B8113969C938E93129745
S11301508181928115969C938E9314978A819B81B9
S1130160EC017D836C83E9017B836A837283618301
S11301701996FC93EE93189780818F5F8083DF91AB
S1130180CF910895CF93DF93EB01488159814F3F7D
S11301902FEF520731F4DC011796ED91FC9118977B
S11301A017C0FC013396DC0115962D913C911697EE
S11301B0D9012D913C914217530750F00280F381ED
S11301C0E02DA281B3812D913C9142175307B0F7E2
S11301D0A281B381BB83AA831596DC93CE93149733
S11301E0FD83EC83D383C28399878887FC012081B4
S11301F02F5F2083DF91CF910895FC01A281B38109
S11302008481958115969C938E931497A481B581CE
S11302108281938113969C938E931297A085B185C6
S113022011968D919C911297E817F90731F4848106
S1130230958112969C938E931197118610868C91BA
S113024081508C93089580916307882321F0813035
S113025009F46FC0B2C0009920C080B1809582FDBE
S11302601CC080910001823008F0A9C091E09093F5
S113027007071092060792E0909305078F5F80931B
S11302800001813021F081E08093020702C01092C6
S1130290020781E0809363070895009B1FC080B12B
S11302A0809582FF1BC080910001882309F487C0D8
S11302B01092070791E090930607909305078150E9
S11302C080930001813021F081E08093020702C015
S11302D01092020781E080936307089580910001E2
S11302E081110DC081E0809307071092060792E008
S11302F090930507809300018093020717C0823012
S113030068F01092070791E0909306079093050711
S11303108150809300019093020708C01092070750
S113032010920607109205071092020710926307B5
S1130330089500991FC080B1809582FD1BC08091F3
S11303400001823098F491E0909307071092060719
S113035092E0909305078F5F80930001813021F034
S113036081E08093020702C01092020781E080932B
S113037063070895009B1EC080B1809582FF1AC058
S113038080910001882391F01092070791E09093E7
S1130390060790930507815080930001813021F076
S11303A081E08093020702C01092020781E08093EB
S11303B063070895109263070895109263070895E0
S11303C01092630740DF8CE291E0B4D4FBCFAF928C
S11303D0BF92CF92DF92EF92FF920F93A12CB12C98
S11303E0C12CD12CE12CF12C082F20E030E045E584
S11303F050E063E071E080EE91E038D20F91FF901D
S1130400EF90DF90CF90BF90AF90089580916207F6
S1130410813009F44AC018F08230D9F063C0809169
S11304200607811104C080910707882371F082E0D8
S113043080936207109203079091050784E1891B5A
S11304408093040781E08BB908951BB8109262076A
S113045008958091030790910507891778F4909186
S11304600607911104C0909107079923B1F08F5F9B
S11304708093030782E080936207089580910607C2
S1130480811104C080910707882339F01092030773
S11304901BB881E0809362070895109206071092BA
S11304A007071BB810926207089580910307909183
S11304B00407891778F490910607911104C090916C
S11304C00707992339F08F5F8093030781E08093B6
S11304D06207089510920607109207071BB810923E
S11304E062070895109262070895109262078EDFE2
S11304F081E090E01FD4FBCFAF92BF92CF92DF9206
S1130500EF92FF920F93A12CB12CC12CD12CE12C92
S1130510F12C082F20E030E045E550E061E171E086
S113052085E792E0A3D10F91FF90EF90DF90CF90F9
S1130530BF90AF90089511B88FEF82B98AB91BB8F4
S113054081E045DF81E0D8DF84D280E090E0089547
S113055031E1FC013083319722E220833197A3E318
S1130560A0833197608331977083319710823197DC
S113057060E8608331971082319762E0608331973D
S113058063E06083319764E06083319765E0608362
S1130590319766E06083319767E06083319768E064
S11305A06083319769E06083319760E160833197BC
S11305B03083319732E13083319733E1308331979F
S11305C034E13083319735E13083319736E130833C
S11305D0319737E13083319738E13083319739E10E
S11305E03083319730E23083319731E23083319771
S11305F02083319723E220833197408331975083BE
S1130600319726E22083319727E22083319728E22D
S11306102083319729E22083319720E32083319787
S113062021E3208386970895109289008CE78093B4
S113063088008BE080938100EFE6F0E080818260A7
S11306408083A0916007B0916107CD91CDBFDD910A
S1130650DEBFFF91EF91DF91CF91BF91AF919F9159
S11306608F917F916F915F914F913F912F911F9146
S11306700F91FF90EF90DF90CF90BF90AF909F903D
S11306808F907F906F905F904F903F902F901F902E
S11306900F900FBE0F90089581E008950F920FB64A
S11306A0F8940F921F9211242F923F924F925F92CF
S11306B06F927F928F929F92AF92BF92CF92DF926E
S11306C0EF92FF920F931F932F933F934F935F9358
S11306D06F937F938F939F93AF93BF93CF93DF9346
S11306E0EF93FF93A0916007B09161070DB60D924F
S11306F00EB60D9270D3A0916007B0916107CD91B1
S1130700CDBFDD91DEBFFF91EF91DF91CF91BF911E
S1130710AF919F918F917F916F915F914F913F9195
S11307202F911F910F91FF90EF90DF90CF90BF908A
S1130730AF909F908F907F906F905F904F903F907D
S11307402F901F900F900FBE0F9008950F920FB629
S1130750F8940F921F9211242F923F924F925F921E
S11307606F927F928F929F92AF92BF92CF92DF92BD
S1130770EF92FF920F931F932F933F934F935F93A7
S11307806F937F938F939F93AF93BF93CF93DF9395
S1130790EF93FF93A0916007B09161070DB60D929E
S11307A00EB60D9285D117D3A0916007B091610761
S11307B0CD91CDBFDD91DEBFFF91EF91DF91CF9160
S11307C0BF91AF919F918F917F916F915F914F9165
S11307D03F912F911F910F91FF90EF90DF90CF9059
S11307E0BF90AF909F908F907F906F905F904F904D
S11307F03F902F901F900F900FBE0F900895A6DF8B
S11308001895CF93DF93EC01E0916007F0916107B5
S1130810938382838091100790911107C817D90799
S113082060F4609160077091610780912607909150
S113083027076E5F7F4FA6DC16C06091600770913A
S1130840610780912807909129076E5F7F4F9ADC9A
S11308508091010190910201C817D90720F4D09327
S11308600201C0930101DF91CF9108954F925F92ED
S11308706F927F928F929F92AF92BF92CF92DF92AC
S1130880EF92FF920F931F93CF93DF935C014B0181
S11308903A01290181E290E017DCEC01892B09F48B
S11308A0C6C0C114D10409F0BEC0C3010DDC988FC9
S11308B08F8B009719F4CE012BDCB9C0A30165EA34
S11308C070E0F5D29301215031098F89988D3C0154
S11308D0620E731E48E050E0B401CE014996EED298
S11308E018A2102F043008F013E01E8B6E0182E072
S11308F0C80ED11CC6011BDCCE010C9618DCD987AE
S1130900C88784E090E0811B91099D878C87DB8BED
S1130910CA8BA201B501C3011BDE99838883E1144C
S1130920F10419F0F701D183C0830FB6F8940F9244
S1130930809112078F5F80931207809160079091D6
S11309406107892B69F5D0936107C0936007809193
S113095012078130A1F58CE397E0DBDB85E497E0B7
S1130960D8DB8EE497E0D5DB87E597E0D2DB83E341
S113097097E0CFDB8AE297E0CCDB8DE197E0C9DB3F
S113098084E197E0C6DB83E397E0909329078093A3
S113099028078AE297E090932707809326070FC0E1
S11309A080910D0781110BC0E0916007F091610700
S11309B08689081720F0D0936107C09360078E8959
S11309C090910F07981710F480930F0790910807E0
S11309D09F5F9093080790910E07981710F48093E7
S11309E00E0790E09C01220F331F220F331F220FAA
S11309F0331F820F931FB601845C984F9CDB0F90CA
S1130A000FBE80910D07882351F0E0916007F091AB
S1130A1061078689801728F441DE81E009C081E0FE
S1130A2007C081E005C0D88ECF8AC60147CF8FEFBB
S1130A30DF91CF911F910F91FF90EF90DF90CF90B6
S1130A40BF90AF909F908F907F906F905F904F90EA
S1130A500895AF92BF92CF92DF92EF92FF920F93DD
S1130A60A12CB12CC12CD12CE12CF12C00E020E0E4
S1130A7030E045E550E06EE171E085EB96E0F6DEAE
S1130A80813041F4F89480930D071092110710926D
S1130A901007CADD0F91FF90EF90DF90CF90BF90C9
S1130AA0AF90089580910C078F5F80930C07089591
S1130AB00F931F93CF93DF9380910C078111AFC0E5
S1130AC080911007909111070196909311078093DC
S1130AD010078091100790911107892B99F5809147
S1130AE028079091290720912607309127073093F2
S1130AF0290720932807909327078093260780913E
S1130B0009078F5F80930907E0912807F09129076F
S1130B108081811107C08FEF9FEF90930201809332
S1130B20010110C0E0912807F09129070580F681A2
S1130B30E02D0680F781E02D82819381909302015C
S1130B4080930101209110073091110780910101D8
S1130B50909102012817390708F466C0E09128072C
S1130B60F09129078081882399F0E0912807F0917A
S1130B7029070580F681E02DC681D7818A819B8172
S1130B80209110073091110728173907F8F419C07C
S1130B908FEF9FEF909302018093010145C0E09194
S1130BA02807F09129070580F681E02DC681D781B9
S1130BB08A819B81209110073091110728173907EA
S1130BC028F490930201809301012EC08E010E5FE0
S1130BD01F4FC80112DB8C899D89892B19F0CE0126
S1130BE00C960BDB8E8990910E07981710F4809366
S1130BF00E0790E09C01220F331F220F331F220F98
S1130C00331F820F931FB801845C984F94DAE091EC
S1130C102807F091290780818111C1CFB9CF809134
S1130C200B078F5F80930B07DF91CF911F910F917B
S1130C300895CF92DF92EF92FF920F931F93CF9379
S1130C40DF930FB6F8940F9280910C078150809334
S1130C500C0780910C0781115FC0809112078111EC
S1130C602FC05DC0D7011596ED91FC911697C681F2
S1130C70D781CE010C96C1DA8E010E5F1F4FC801D9
S1130C80BCDA8E8990910E07981710F480930E07A2
S1130C9090E09C01220F331F220F331F220F331FBA
S1130CA0820F931FB801845C984F45DAE091600786
S1130CB0F09161079E898689981758F0DC2C09C049
S1130CC0D12C0F2EFDE1EF2EF7E0FF2EF02DCC24DA
S1130CD0C394F70180818111C5CF80910B078823CC
S1130CE079F080910B07882391F0E2DE80910B0765
S1130CF0815080930B0780910B078111F6CF07C0B9
S1130D00F1E0DF1621F080910A07813039F4109266
S1130D100A07C4DC81E003C080E001C080E00F90DA
S1130D200FBEDF91CF911F910F91FF90EF90DF9055
S1130D30CF900895CF93DF93EC01892B91F0B2DE2D
S1130D408091100790911107C80FD91F80916007F7
S1130D5090916107029651DACE0153DD6ADF811169
S1130D6001C09CDCDF91CF9108950F2EF4E1EF2EAA
S1130D70F7E0FF2EF02DCCE3D7E080911307882312
S1130D8029F190DED7011C9154DF1123F9F00FB63D
S1130D90F8940F92D7011596ED91FC911697068160
S1130DA01781C801029629DA809112078150809335
S1130DB01207809113078150809313070F900FBE81
S1130DC0F8018789908DA4D9C801A2D9888182307D
S1130DD0A0F264DCD2CF80910C07811113C0809102
S1130DE00E0790E0FC01EE0FFF1FEE0FFF1FEE0F4A
S1130DF0FF1F8E0F9F1FFC01E45CF84F8081882346
S1130E0029F01BC081E080930A07089580910E07A2
S1130E10815080930E0780910E0790E0FC01EE0F45
S1130E20FF1FEE0FFF1FEE0FFF1F8E0F9F1FFC0112
S1130E30E45CF84F8081882349F380910E0790E0A9
S1130E409C01220F331F220F331F220F331F280F41
S1130E50391FD901A45CB84F1196ED91FC911297FA
S1130E600280F381E02D1296FC93EE931197215C9E
S1130E70384FE217F30729F422813381FD013283CD
S1130E802183FC01EE0FFF1FEE0FFF1FEE0FFF1F6C
S1130E908E0F9F1FFC01E45CF84F0180F281E02D6E
S1130EA08681978190936107809360070895DC01A0
S1130EB001C06D9341505040E0F70895FB01DC01FF
S1130EC04150504048F001900D920020C9F701C0F4
S1110ED01D9241505040E0F70895F894FFCF72
S1130EDE01FFFF425554544F4E5365635461736B77
S1130EEE00534552564F5365635461736B00494426
S1070EFE4C4500005B
S9030000FC
