:1000000045C0000060C000005EC000005CC0000091
:100010005AC0000058C0000056C0000054C0000084
:1000200052C0000050C000004EC000004CC0000094
:100030004AC0000007C3000046C0000044C00000E2
:1000400042C0000040C000003EC000003CC00000B4
:100050003AC0000038C0000036C0000034C00000C4
:1000600032C0000030C000002EC000002CC00000D4
:100070002AC0000028C0000026C0000024C00000E4
:1000800022C0000020C000001EC0000011241FBEBE
:10009000CFEFD0E4DEBFCDBF11E0A0E0B1E0E4E2FD
:1000A000FDE000E00BBF02C007900D92A232B10745
:1000B000D9F727E0A2E2B1E001C01D92AF35B20747
:1000C000E1F758D12DC69CCFCF93DF93EC010DD42F
:1000D0002091220130912301C9018C0F9D1F8C3D7D
:1000E00045E0940758F42817390758F4E901CC5D26
:1000F000DE4F909323018093220105C0C0E0D0E041
:1001000002C0C0E0D0E0B8D4CE01DF91CF91089515
:100110000895FC010396928381832FEF3FEF348390
:100120002383968385839087878310820895FC01BB
:10013000118610860895CF93DF93FC01DB012181A6
:100140003281E9018A819B8113969C938E93129749
:100150008181928115969C938E9314978A819B81BD
:10016000EC017D836C83E9017B836A837283618305
:100170001996FC93EE93189780818F5F8083DF91AF
:10018000CF910895CF93DF93EB01488159814F3F81
:100190002FEF520731F4DC011796ED91FC9118977F
:1001A00017C0FC013396DC0115962D913C911697F2
:1001B000D9012D913C914217530750F00280F381F1
:1001C000E02DA281B3812D913C9142175307B0F7E6
:1001D000A281B381BB83AA831596DC93CE93149737
:1001E000FD83EC83D383C28399878887FC012081B8
:1001F0002F5F2083DF91CF910895FC01A281B3810D
:100200008481958115969C938E931497A481B581D2
:100210008281938113969C938E931297A085B185CA
:1002200011968D919C911297E817F90731F484810A
:10023000958112969C938E931197118610868C91BE
:1002400081508C93089580915E07823011F48FEF76
:1002500088B980915E07813061F018F08230B9F082
:1002600027C080B1809581FF25C081E080935E0723
:10027000089580B1809581FD1DC082E080935E0766
:1002800010920207109201078FEF85B90895009927
:1002900005C010925E0715B818B80895809101073F
:1002A00090910207019690930207809301070895A9
:1002B00010925E07089510925E07C5DF8AE090E015
:1002C0005CD4FBCFAF92BF92CF92DF92EF92FF92BE
:1002D0000F93A12CB12CC12CD12CE12CF12C082F87
:1002E00020E030E045E550E062E071E08BE591E030
:1002F000E0D10F91FF90EF90DF90CF90BF90AF9043
:10030000089580915D07811109C08091010794EAE9
:10031000899F802D1124809300078BB980915D0700
:10032000811110925D07089510925D07EADF8AE05F
:1003300090E023D4FBCFAF92BF92CF92DF92EF92A7
:10034000FF920F93A12CB12CC12CD12CE12CF12CBC
:10035000082F20E030E045E550E06FE071E084E9EF
:1003600091E0A7D10F91FF90EF90DF90CF90BF90D9
:10037000AF90089511B88FEF82B984B915B887B9D5
:1003800018B88AB91BB881E09DDF81E0D4DF84D240
:1003900080E090E0089531E1FC013083319722E262
:1003A00020833197A3E3A0833197608331977083D3
:1003B00031971082319760E86083319710823197CE
:1003C00062E06083319763E06083319764E060832B
:1003D000319765E06083319766E06083319767E02D
:1003E0006083319768E06083319769E0608331977B
:1003F00060E1608331973083319732E13083319708
:1004000033E13083319734E13083319735E1308304
:10041000319736E13083319737E13083319738E1D6
:100420003083319739E13083319730E2308331972F
:1004300031E2308331972083319723E22083319753
:10044000408331975083319726E22083319727E20A
:100450002083319728E22083319729E22083319746
:1004600020E32083319721E320838697089510921B
:1004700089008CE7809388008BE080938100EFE611
:10048000F0E0808182608083A0915B07B0915C077F
:10049000CD91CDBFDD91DEBFFF91EF91DF91CF9187
:1004A000BF91AF919F918F917F916F915F914F918C
:1004B0003F912F911F910F91FF90EF90DF90CF9080
:1004C000BF90AF909F908F907F906F905F904F9074
:1004D0003F902F901F900F900FBE0F90089581E0D6
:1004E00008950F920FB6F8940F921F9211242F9235
:1004F0003F924F925F926F927F928F929F92AF92B4
:10050000BF92CF92DF92EF92FF920F931F932F93A0
:100510003F934F935F936F937F938F939F93AF938B
:10052000BF93CF93DF93EF93FF93A0915B07B091BD
:100530005C070DB60D920EB60D9270D3A0915B07BD
:10054000B0915C07CD91CDBFDD91DEBFFF91EF9102
:10055000DF91CF91BF91AF919F918F917F916F91DB
:100560005F914F913F912F911F910F91FF90EF90CD
:10057000DF90CF90BF90AF909F908F907F906F90C3
:100580005F904F903F902F901F900F900FBE0F9055
:1005900008950F920FB6F8940F921F9211242F9284
:1005A0003F924F925F926F927F928F929F92AF9203
:1005B000BF92CF92DF92EF92FF920F931F932F93F0
:1005C0003F934F935F936F937F938F939F93AF93DB
:1005D000BF93CF93DF93EF93FF93A0915B07B0910D
:1005E0005C070DB60D920EB60D9285D117D3A09172
:1005F0005B07B0915C07CD91CDBFDD91DEBFFF9170
:10060000EF91DF91CF91BF91AF919F918F917F91AA
:100610006F915F914F913F912F911F910F91FF909B
:10062000EF90DF90CF90BF90AF909F908F907F9092
:100630006F905F904F903F902F901F900F900FBE44
:100640000F900895A6DF1895CF93DF93EC01E0910A
:100650005B07F0915C079383828380910B079091F5
:100660000C07C817D90760F460915B0770915C07AD
:1006700080912107909122076E5F7F4F83DD16C026
:1006800060915B0770915C0780912307909124072C
:100690006E5F7F4F77DD8091000190910101C81757
:1006A000D90720F4D0930101C0930001DF91CF91CD
:1006B00008954F925F926F927F928F929F92AF9226
:1006C000BF92CF92DF92EF92FF920F931F93CF933F
:1006D000DF935C014B013A01290181E290E0F4DCF7
:1006E000EC01892B09F4C6C0C114D10409F0BEC0C5
:1006F000C301EADC988F8F8B009719F4CE0108DDD7
:10070000B9C0A30165EA70E0F5D293012150310927
:100710008F89988D3C01620E731E48E050E0B40151
:10072000CE014996EED218A2102F043008F013E043
:100730001E8B6E0182E0C80ED11CC601F8DCCE0112
:100740000C96F5DCD987C88784E090E0811B91097D
:100750009D878C87DB8BCA8BA201B501C3011BDE91
:1007600099838883E114F10419F0F701D183C083E0
:100770000FB6F8940F9280910D078F5F80930D074D
:1007800080915B0790915C07892B69F5D0935C079A
:10079000C0935B0780910D078130A1F587E397E057
:1007A000B8DC80E497E0B5DC89E497E0B2DC82E570
:1007B00097E0AFDC8EE297E0ACDC85E297E0A9DC65
:1007C00088E197E0A6DC8FE097E0A3DC8EE297E07B
:1007D000909324078093230785E297E09093220764
:1007E000809321070FC08091080781110BC0E09111
:1007F0005B07F0915C078689081720F0D0935C07AF
:10080000C0935B078E8990910A07981710F4809324
:100810000A07909103079F5F909303079091090740
:10082000981710F48093090790E09C01220F331F62
:10083000220F331F220F331F820F931FB601895CD3
:10084000984F79DC0F900FBE80910807882351F0F4
:10085000E0915B07F0915C078689801728F441DE00
:1008600081E009C081E007C081E005C0D88ECF8A51
:10087000C60147CF8FEFDF91CF911F910F91FF906E
:10088000EF90DF90CF90BF90AF909F908F907F9030
:100890006F905F904F900895AF92BF92CF92DF928A
:1008A000EF92FF920F93A12CB12CC12CD12CE12CF3
:1008B000F12C00E020E030E045E550E06DE171E032
:1008C00088ED95E0F6DE813041F4F89480930807D6
:1008D00010920C0710920B07CADD0F91FF90EF905A
:1008E000DF90CF90BF90AF900895809107078F5F02
:1008F0008093070708950F931F93CF93DF93809101
:1009000007078111AFC080910B0790910C070196EA
:1009100090930C0780930B0780910B0790910C0725
:10092000892B99F580912307909124072091210725
:1009300030912207309324072093230790932207B6
:1009400080932107809104078F5F80930407E091D3
:100950002307F09124078081811107C08FEF9FEF5B
:10096000909301018093000110C0E0912307F09162
:1009700024070580F681E02D0680F781E02D828135
:100980009381909301018093000120910B07309196
:100990000C0780910001909101012817390708F494
:1009A00066C0E0912307F09124078081882399F0A5
:1009B000E0912307F09124070580F681E02DC681A0
:1009C000D7818A819B8120910B0730910C072817D2
:1009D0003907F8F419C08FEF9FEF909301018093CE
:1009E000000145C0E0912307F09124070580F681BE
:1009F000E02DC681D7818A819B8120910B073091A0
:100A00000C072817390728F49093010180930001FF
:100A10002EC08E010E5F1F4FC801EFDB8C899D89B0
:100A2000892B19F0CE010C96E8DB8E89909109078D
:100A3000981710F48093090790E09C01220F331F50
:100A4000220F331F220F331F820F931FB801895CBF
:100A5000984F71DBE0912307F09124078081811189
:100A6000C1CFB9CF809106078F5F80930607DF91D2
:100A7000CF911F910F910895CF92DF92EF92FF9245
:100A80000F931F93CF93DF930FB6F8940F9280913B
:100A900007078150809307078091070781115FC086
:100AA00080910D0781112FC05DC0D7011596ED9182
:100AB000FC911697C681D781CE010C969EDB8E01E4
:100AC0000E5F1F4FC80199DB8E8990910907981717
:100AD00010F48093090790E09C01220F331F220F2E
:100AE000331F220F331F820F931FB801895C984F69
:100AF00022DBE0915B07F0915C079E89868998175D
:100B000058F0DC2C09C0D12C0F2EF8E1EF2EF7E0C5
:100B1000FF2EF02DCC24C394F70180818111C5CF25
:100B200080910607882379F080910607882391F049
:100B3000E2DE8091060781508093060780910607C8
:100B40008111F6CF07C0F1E0DF1621F08091050793
:100B5000813039F410920507C4DC81E003C080E0E5
:100B600001C080E00F900FBEDF91CF911F910F91D8
:100B7000FF90EF90DF90CF900895CF93DF93EC013B
:100B8000892B91F0B2DE80910B0790910C07C80F72
:100B9000D91F80915B0790915C0702962EDBCE01F6
:100BA00053DD6ADF811101C09CDCDF91CF91089594
:100BB0000F2EFFE0EF2EF7E0FF2EF02DC7E3D7E07A
:100BC00080910E07882329F190DED7011C9154DF14
:100BD0001123F9F00FB6F8940F92D7011596ED9105
:100BE000FC91169706811781C801029606DB809159
:100BF0000D07815080930D0780910E0781508093DF
:100C00000E070F900FBEF8018789908D81DAC80119
:100C10007FDA88818230A0F264DCD2CF809107072E
:100C2000811113C08091090790E0FC01EE0FFF1FB6
:100C3000EE0FFF1FEE0FFF1F8E0F9F1FFC01E95CE1
:100C4000F84F8081882329F01BC081E0809305073D
:100C500008958091090781508093090780910907C1
:100C600090E0FC01EE0FFF1FEE0FFF1FEE0FFF1FC6
:100C70008E0F9F1FFC01E95CF84F8081882349F3A8
:100C80008091090790E09C01220F331F220F331F30
:100C9000220F331F280F391FD901A95CB84F1196B5
:100CA000ED91FC9112970280F381E02D1296FC9356
:100CB000EE931197265C384FE217F30729F422814F
:100CC0003381FD0132832183FC01EE0FFF1FEE0F04
:100CD000FF1FEE0FFF1F8E0F9F1FFC01E95CF84FF7
:100CE0000180F281E02D8681978190935C0780934B
:100CF0005B070895DC0101C06D9341505040E0F75F
:100D00000895FB01DC014150504048F001900D92E4
:100D10000020C9F701C01D9241505040E0F70895EE
:040D2000F894FFCF75
:100D2400FFFF534F4E41525365635461736B004F41
:100D340055545055545365635461736B0049444C86
:020D4400450068
:00000001FF
