S0190000426173696320576F726B696E67204361722E73726563F2
S113000045C0000061C000005FC000005DC000008A
S11300105BC0000059C0000057C0000055C000007C
S113002053C0000051C000004FC000004DC000008C
S11300304BC0000033C5000047C0000045C00000AD
S113004043C0000041C000003FC000003DC00000AC
S11300503BC0000039C0000037C0000035C00000BC
S113006033C0000031C000002FC000002DC00000CC
S11300702BC0000029C0000027C0000025C00000DC
S113008023C0000021C000001FC0000011241FBEB7
S1130090CFEFD0E4DEBFCDBF11E0A0E0B1E0ECE7EC
S11300A0F1E100E00BBF02C007900D92A035B1074B
S11300B0D9F727E0A0E5B1E001C01D92AC39B20741
S11300C0E1F77DD30C94BC089BCFCF93DF93EC0175
S11300D038D62091500130915101C9018C0F9D1FD8
S11300E08C3D45E0940758F42817390758F4E90182
S11300F0CE5ADE4F909351018093500105C0C0E069
S1130100D0E002C0C0E0D0E0E3D6CE01DF91CF91D1
S113011008950895FC010396928381832FEF3FEFA6
S113012034832383968385839087878310820895FD
S1130130FC01118610860895CF93DF93FC01DB0147
S113014021813281E9018A819B8113969C938E934C
S113015012978181928115969C938E9314978A812C
S11301609B81EC017D836C83E9017B836A837283C9
S113017061831996FC93EE93189780818F5F808337
S1130180DF91CF910895CF93DF93EB01488159819B
S11301904F3F2FEF520731F4DC011796ED91FC919C
S11301A0189717C0FC013396DC0115962D913C91EC
S11301B01697D9012D913C914217530750F00280B4
S11301C0F381E02DA281B3812D913C914217530715
S11301D0B0F7A281B381BB83AA831596DC93CE9337
S11301E01497FD83EC83D383C28399878887FC01AA
S11301F020812F5F2083DF91CF910895FC01A2819C
S1130200B3818481958115969C938E931497A481D0
S1130210B5818281938113969C938E931297A085C6
S1130220B18511968D919C911297E817F90731F4D5
S11302308481958112969C938E93119711861086D2
S11302408C9181508C93089580E480937C0087E89E
S113025080937A000895ECE7F0E09081987F8770AE
S1130260892B8083EAE7F0E0808180648083808149
S113027086FDFDCF8091780090917900089580915A
S11302809907811156C0E7DF9093370780933607AB
S11302909C01255432402B38310530F481E08093A1
S11302A03A0780933C0745C09C01215D32402B38BE
S11302B0310538F481E080933A0782E080933C076B
S11302C038C08D3523E0920738F081E080933A07F7
S11302D083E080933C072DC09C012F543140253A84
S11302E0310530F481E08093390780933B0721C0C6
S11302F09C01285A3109263A310538F481E080936B
S1130300390782E080933B0714C0873A910538F49B
S113031081E08093390783E080933B070AC0109201
S11303203A071092390710923C0710923B0718B80D
S11303301BB8809199078111109299070895109222
S113034099079DDF82E090E044D6FBCFAF92BF9245
S1130350CF92DF92EF92FF920F93A12CB12CC12C7C
S1130360D12CE12CF12C082F20E030E045E550E0C1
S113037064E071E08FE991E0C8D30F91FF90EF90B2
S1130380DF90CF90BF90AF90089580919A0781112C
S113039065C081E060DF90932F0780932E0785343A
S11303A022E09207C0F080910001882309F456C02E
S11303B01092350791E0909334079093330781505E
S11303C080930001813021F081E08093300746C0A2
S11303D01092300743C0843F9140C0F480910001E3
S11303E08230E0F591E0909335071092340792E063
S11303F0909333078F5F80930001813021F081E077
S1130400809330072BC01092300728C080910001E0
S113041081110DC081E0809335071092340792E07A
S113042090933307809300018093300717C0823084
S113043068F01092350791E0909334079093330756
S11304408150809300019093300708C010923507C3
S113045010923407109233071092300780919A0754
S1130460811110929A07089510929A078EDF8FE0F7
S113047090E0AFD5FBCFAF92BF92CF92DF92EF92D5
S1130480FF920F93A12CB12CC12CD12CE12CF12C77
S1130490082F20E030E045E550E06FE071E084E3B0
S11304A092E033D30F91FF90EF90DF90CF90BF9005
S11304B0AF900895809197078130B9F018F0823099
S11304C079F1089580913A07882309F443C081E0C3
S11304D08093970720913C0793E0921B909301012E
S11304E01092380788B98BB9089580913A07882308
S11304F091F08091380790913C07891720F48F5F21
S113050080933807089582E0809397071092380704
S113051018B81BB808951092970718B81BB8089517
S113052080913A07882391F08091380790910101D6
S1130530891720F48F5F80933807089581E08093B2
S113054097071092380788B98BB9089510929707C6
S113055018B81BB8089510929707ACDF83E090E0B9
S113056038D5FBCFAF92BF92CF92DF92EF92FF923A
S11305700F93A12CB12CC12CD12CE12CF12C082FE0
S113058020E030E045E550E06FE171E08BEA92E075
S1130590BCD20F91FF90EF90DF90CF90BF90AF90BF
S11305A0089580919B078130C1F018F0823081F169
S11305B0089580913907882309F445C081E0809328
S11305C09B0790913B0783E0891B80930101109264
S11305D0380782E088B98BB9089580913907882358
S11305E091F08091380790913B07891720F48F5F31
S11305F080933807089582E080939B071092380710
S113060018B81BB8089510929B0718B81BB8089522
S113061080913907882399F08091380790910101DE
S1130620891720F48F5F80933807089581E08093C1
S11306309B071092380782E088B98BB9089510920D
S11306409B0718B81BB8089510929B07AADF83E094
S113065090E0BFD4FBCFAF92BF92CF92DF92EF92E4
S1130660FF920F93A12CB12CC12CD12CE12CF12C95
S1130670082F20E030E045E550E06EE271E084E2CE
S113068093E043D20F91FF90EF90DF90CF90BF9013
S1130690AF90089580919807813009F44AC018F00A
S11306A08230D9F063C080913407811104C08091F5
S11306B03507882371F082E0809398071092310700
S11306C09091330784E1891B8093320781E085B9D7
S11306D0089515B810929807089580913107909164
S11306E03307891778F490913407911104C09091DD
S11306F035079923B1F08F5F8093310782E08093AF
S11307009807089580913407811104C080913507BA
S1130710882339F01092310715B881E08093980747
S11307200895109234071092350715B8109298075F
S113073008958091310790913207891778F4909148
S11307403407911104C090913507992339F08F5FD4
S11307508093310781E080939807089510923407BD
S11307601092350715B810929807089510929807BB
S11307700895109298078EDF81E090E02AD4FBCF91
S1130780AF92BF92CF92DF92EF92FF920F93A12C80
S1130790B12CC12CD12CE12CF12C082F20E030E01D
S11307A045E550E06DE371E089EB93E0AED10F9144
S11307B0FF90EF90DF90CF90BF90AF90089511B865
S11307C08FEF82B984B915B887B918B88AB91BB83C
S11307D03BDD81E0BBDD81E04EDE81E0C3DE81E014
S11307E03ADF81E0CDDF84D280E090E0089531E10A
S11307F0FC013083319722E220833197A3E3A08365
S1130800319760833197708331971082319760E814
S1130810608331971082319762E06083319763E09F
S11308206083319764E06083319765E0608331973A
S113083066E06083319767E06083319768E06083A6
S1130840319769E06083319760E160833197308349
S1130850319732E13083319733E13083319734E19A
S11308603083319735E13083319736E130833197E6
S113087037E13083319738E13083319739E1308380
S1130880319730E23083319731E2308331972083DE
S1130890319723E2208331974083319750833197F6
S11308A026E22083319727E22083319728E22083B0
S11308B0319729E22083319720E32083319721E384
S11308C0208386970895109289008CE7809388008E
S11308D08BE080938100EFE6F0E08081826080838A
S11308E0A0919507B0919607CD91CDBFDD91DEBF64
S11308F0FF91EF91DF91CF91BF91AF919F918F9134
S11309007F916F915F914F913F912F911F910F9123
S1130910FF90EF90DF90CF90BF90AF909F908F901B
S11309207F906F905F904F903F902F901F900F900B
S11309300FBE0F90089581E008950F920FB6F894BA
S11309400F921F9211242F923F924F925F926F92B7
S11309507F928F929F92AF92BF92CF92DF92EF924B
S1130960FF920F931F932F933F934F935F936F9334
S11309707F938F939F93AF93BF93CF93DF93EF9323
S1130980FF93A0919507B09196070DB60D920EB600
S11309900D9270D3A0919507B0919607CD91CDBFDC
S11309A0DD91DEBFFF91EF91DF91CF91BF91AF91C8
S11309B09F918F917F916F915F914F913F912F9173
S11309C01F910F91FF90EF90DF90CF90BF90AF9069
S11309D09F908F907F906F905F904F903F902F905B
S11309E01F900F900FBE0F9008950F920FB6F894BA
S11309F00F921F9211242F923F924F925F926F9207
S1130A007F928F929F92AF92BF92CF92DF92EF929A
S1130A10FF920F931F932F933F934F935F936F9383
S1130A207F938F939F93AF93BF93CF93DF93EF9372
S1130A30FF93A0919507B09196070DB60D920EB64F
S1130A400D9285D117D3A0919507B0919607CD91BA
S1130A50CDBFDD91DEBFFF91EF91DF91CF91BF91CB
S1130A60AF919F918F917F916F915F914F913F9142
S1130A702F911F910F91FF90EF90DF90CF90BF9037
S1130A80AF909F908F907F906F905F904F903F902A
S1130A902F901F900F900FBE0F900895A6DF18950A
S1130AA0CF93DF93EC01E0919507F0919607938340
S1130AB082838091450790914607C817D90760F44F
S1130AC0609195077091960780915B0790915C0700
S1130AD06E5F7F4F58DB16C0609195077091960743
S1130AE080915D0790915E076E5F7F4F4CDB809134
S1130AF0020190910301C817D90720F4D093030190
S1130B00C0930201DF91CF9108954F925F926F924B
S1130B107F928F929F92AF92BF92CF92DF92EF9289
S1130B20FF920F931F93CF93DF935C014B013A0124
S1130B30290181E290E0C9DAEC01892B09F4C6C0ED
S1130B40C114D10409F0BEC0C301BFDA988F8F8BE2
S1130B50009719F4CE01DDDAB9C0A30165EA70E0AB
S1130B60F5D29301215031098F89988D3C01620E91
S1130B70731E48E050E0B401CE014996EED218A2AB
S1130B80102F043008F013E01E8B6E0182E0C80EB3
S1130B90D11CC601CDDACE010C96CADAD987C88732
S1130BA084E090E0811B91099D878C87DB8BCA8B45
S1130BB0A201B501C3011BDE99838883E114F1040A
S1130BC019F0F701D183C0830FB6F8940F92809186
S1130BD047078F5F80934707809195079091960709
S1130BE0892B69F5D0939607C093950780914707A1
S1130BF08130A1F581E797E08DDA8AE797E08ADA18
S1130C0083E897E087DA8CE897E084DA88E697E06F
S1130C1081DA8FE597E07EDA82E597E07BDA89E492
S1130C2097E078DA88E697E090935E0780935D0713
S1130C308FE597E090935C0780935B070FC08091EA
S1130C40420781110BC0E0919507F09196078689C0
S1130C50081720F0D0939607C09395078E8990913A
S1130C604407981710F48093440790913D079F5FC1
S1130C7090933D0790914307981710F4809343078E
S1130C8090E09C01220F331F220F331F220F331FCA
S1130C90820F931FB6018F58984F4EDA0F900FBEF4
S1130CA080914207882351F0E0919507F0919607CF
S1130CB08689801728F441DE81E009C081E007C0FD
S1130CC081E005C0D88ECF8AC60147CF8FEFDF9170
S1130CD0CF911F910F91FF90EF90DF90CF90BF9035
S1130CE0AF909F908F907F906F905F904F900895FA
S1130CF0AF92BF92CF92DF92EF92FF920F93A12C0B
S1130D00B12CC12CD12CE12CF12C00E020E030E0FE
S1130D1045E550E06AE471E084E098E0F6DE813075
S1130D2041F4F894809342071092460710924507C5
S1130D30CADD0F91FF90EF90DF90CF90BF90AF90FE
S1130D400895809141078F5F8093410708950F9321
S1130D501F93CF93DF93809141078111AFC080919E
S1130D60450790914607019690934607809345075F
S1130D708091450790914607892B99F580915D07ED
S1130D8090915E0720915B0730915C0730935E077A
S1130D9020935D0790935C0780935B0780913E07E7
S1130DA08F5F80933E07E0915D07F0915E0780813D
S1130DB0811107C08FEF9FEF90930301809302018D
S1130DC010C0E0915D07F0915E070580F681E02D8B
S1130DD00680F781E02D82819381909303018093B3
S1130DE002012091450730914607809102019091BC
S1130DF003012817390708F466C0E0915D07F091F4
S1130E005E078081882399F0E0915D07F0915E0789
S1130E100580F681E02DC681D7818A819B8120914E
S1130E2045073091460728173907F8F419C08FEFA2
S1130E309FEF909303018093020145C0E0915D0709
S1130E40F0915E070580F681E02DC681D7818A8105
S1130E509B8120914507309146072817390728F4CC
S1130E6090930301809302012EC08E010E5F1F4FE9
S1130E70C801C4D98C899D89892B19F0CE010C969F
S1130E80BDD98E8990914307981710F48093430736
S1130E9090E09C01220F331F220F331F220F331FB8
S1130EA0820F931FB8018F58984F46D9E0915D0780
S1130EB0F0915E0780818111C1CFB9CF8091400745
S1130EC08F5F80934007DF91CF911F910F91089519
S1130ED0CF92DF92EF92FF920F931F93CF93DF9302
S1130EE00FB6F8940F928091410781508093410787
S1130EF08091410781115FC08091470781112FC004
S1130F005DC0D7011596ED91FC911697C681D781E6
S1130F10CE010C9673D98E010E5F1F4FC8016ED996
S1130F208E8990914307981710F48093430790E0BB
S1130F309C01220F331F220F331F220F331F820FF6
S1130F40931FB8018F58984FF7D8E0919507F09107
S1130F5096079E898689981758F0DC2C09C0D12CF5
S1130F600F2EF2E5EF2EF7E0FF2EF02DCC24C394E4
S1130F70F70180818111C5CF80914007882379F0E2
S1130F8080914007882391F0E2DE809140078150F0
S1130F9080934007809140078111F6CF07C0F1E0AC
S1130FA0DF1621F080913F07813039F410923F071A
S1130FB0C4DC81E003C080E001C080E00F900FBE7C
S1130FC0DF91CF911F910F91FF90EF90DF90CF9021
S1130FD00895CF93DF93EC01892B91F0B2DE8091D9
S1130FE0450790914607C80FD91F809195079091A6
S1130FF09607029603D9CE0153DD6ADF811101C041
S11310009CDCDF91CF9108950F2EF9E4EF2EF7E0E9
S1131010FF2EF02DC1E7D7E080914807882329F1FE
S113102090DED7011C9154DF1123F9F00FB6F89428
S11310300F92D7011596ED91FC91169706811781B1
S1131040C8010296DBD880914707815080934707F7
S1131050809148078150809348070F900FBEF80194
S11310608789908D56D8C80154D888818230A0F2DF
S113107064DCD2CF80914107811113C08091430772
S113108090E0FC01EE0FFF1FEE0FFF1FEE0FFF1F9E
S11310908E0F9F1FFC01EF58F84F8081882329F0A1
S11310A01BC081E080933F070895809143078150DE
S11310B0809343078091430790E0FC01EE0FFF1FEC
S11310C0EE0FFF1FEE0FFF1F8E0F9F1FFC01EF5847
S11310D0F84F8081882349F38091430790E09C0175
S11310E0220F331F220F331F220F331F280F391FE4
S11310F0D901AF58B84F1196ED91FC911297028027
S1131100F381E02D1296FC93EE9311972C58384FEF
S1131110E217F30729F422813381FD01328321830D
S1131120FC01EE0FFF1FEE0FFF1FEE0FFF1F8E0FD0
S11311309F1FFC01EF58F84F0180F281E02D86815A
S1131140978190939607809395070895DC0101C0D9
S11311506D9341505040E0F70895FB01DC0141508C
S1131160504048F001900D920020C9F701C01D9233
S10F117041505040E0F70895F894FFCF80
S113117C010AFFFF4A4F595365635461736B005363
S113118C54454552494E475365635461736B00464D
S113119C6F72776172645365635461736B0052654B
S11311AC76657273655365635461736B0053455272
S11311BC564F5365635461736B0049444C450000AE
S9030000FC
