:1000000045C0000060C000005EC000005CC0000091
:100010005AC0000058C0000056C0000054C0000084
:1000200052C0000050C000004EC000004CC0000094
:100030004AC000003FC4000046C0000044C00000A9
:1000400042C0000040C000003EC000003CC00000B4
:100050003AC0000038C0000036C0000034C00000C4
:1000600032C0000030C000002EC000002CC00000D4
:100070002AC0000028C0000026C0000024C00000E4
:1000800022C0000020C000001EC0000011241FBEBE
:10009000CFEFD0E4DEBFCDBF11E0A0E0B1E0E4E9F6
:1000A000FFE000E00BBF02C007900D92AC34B10737
:1000B000D9F727E0ACE4B1E001C01D92A539B20741
:1000C000E1F792D265C79CCFCF93DF93EC0145D582
:1000D00020914C0130914D01C9018C0F9D1F8C3D29
:1000E00045E0940758F42817390758F4E901C25B32
:1000F000DE4F90934D0180934C0105C0C0E0D0E0ED
:1001000002C0C0E0D0E0F0D5CE01DF91CF910895DC
:100110000895FC010396928381832FEF3FEF348390
:100120002383968385839087878310820895FC01BB
:10013000118610860895CF93DF93FC01DB012181A6
:100140003281E9018A819B8113969C938E93129749
:100150008181928115969C938E9314978A819B81BD
:10016000EC017D836C83E9017B836A837283618305
:100170001996FC93EE93189780818F5F8083DF91AF
:10018000CF910895CF93DF93EB01488159814F3F81
:100190002FEF520731F4DC011796ED91FC9118977F
:1001A00017C0FC013396DC0115962D913C911697F2
:1001B000D9012D913C914217530750F00280F381F1
:1001C000E02DA281B3812D913C9142175307B0F7E6
:1001D000A281B381BB83AA831596DC93CE93149737
:1001E000FD83EC83D383C28399878887FC012081B8
:1001F0002F5F2083DF91CF910895FC01A281B3810D
:100200008481958115969C938E931497A481B581D2
:100210008281938113969C938E931297A085B185CA
:1002200011968D919C911297E817F90731F484810A
:10023000958112969C938E931197118610868C91BE
:1002400081508C930895813081F0E1ECF0E0808161
:1002500088618083E2ECF0E080818660808383E3C4
:100260008093C4001092C5000895E9ECF0E080810D
:1002700088618083EAECF0E080818660808383E39C
:100280008093CC001092CD000895813029F48091A4
:10029000C800882374F008958091C00088238CF4EE
:1002A000A6ECB0E0E0ECF0E08C9180818823E4F3F0
:1002B0000895AEECB0E0E8ECF0E08C91808188230A
:1002C000E4F30895813041F0E0ECF0E08081882390
:1002D000ECF78091C6000895E8ECF0E08081882377
:1002E000ECF78091CE000895AF92BF92CF92DF924B
:1002F000EF92FF920F931F93CF93DF93809190071C
:10030000813009F07DC080E0DDDF80932A0780E046
:10031000BCDF20912A0722FB002700F910E0012B07
:1003200001F1322F317021FBAA24A0F8B12CA114C5
:10033000B10431F4332391F081E08093340732C06B
:10034000AB2861F0311104C082E0809334072AC0E9
:10035000332321F083E08093340724C010923407C4
:1003600021C0322F317021FBCC24C0F8D12CC11414
:10037000D10431F4332391F081E08093350712C02A
:10038000CD2861F0311104C082E0809335070AC0A6
:10039000332321F083E08093350704C010923507A2
:1003A0001092340780912A0721E083FBEE24E0F8C5
:1003B000F12C83FF20E020932C0791E084FB22277F
:1003C00020F9C22F20E0D22F84FF90E090932B07DA
:1003D000209741F4EF2881F081E08093320710925A
:1003E00033070EC0CD2B41F0EF2831F410923207C5
:1003F00081E08093330704C01092320710923307D4
:1004000080919007882319F01092900707C080917F
:10041000C00088231CF481E080939007DF91CF9186
:100420001F910F91FF90EF90DF90CF90BF90AF9012
:1004300008951092900758DF83E090E0D6D4FBCF68
:10044000AF92BF92CF92DF92EF92FF920F93A12CC7
:10045000B12CC12CD12CE12CF12C082F20E030E064
:1004600045E550E062E071E089E192E05AD20F91F7
:10047000FF90EF90DF90CF90BF90AF900895809164
:100480009107811184C080913507813061F480919A
:100490003007811124C080913107807C8460809373
:1004A000310788B94DC0823061F4809130078111E5
:1004B00016C080913107807C86608093310788B9AF
:1004C0003FC0833061F480913007811108C0809172
:1004D0003107807C87608093310788B931C0809173
:1004E0003407813061F480912F07811124C08091FD
:1004F0003107807C88608093310788B921C08230C1
:1005000061F480912F07811116C080913107807CA2
:1005100088618093310788B913C0833061F480917A
:100520002F07811108C080913107807C88638093F8
:10053000310788B905C080913107807C80933107ED
:1005400080913307813061F480912E07811108C0BA
:10055000809131078F7380648093310788B918C008
:1005600080913207882361F080912D07811108C0A6
:10057000809131078F7380688093310788B908C0F4
:10058000809131078F738093310788B901C018B803
:10059000809191078111109291070895109291070F
:1005A0006EDF8FE090E021D4FBCFAF92BF92CF926D
:1005B000DF92EF92FF920F93A12CB12CC12CD12C82
:1005C000E12CF12C082F20E030E045E550E061E31C
:1005D00071E08EEC92E0A5D10F91FF90EF90DF904B
:1005E000CF90BF90AF90089511B88FEF82B987B9BF
:1005F00018B880E028DE81E023DF81E0D6DF84D2F6
:1006000080E090E0089531E1FC013083319722E2EF
:1006100020833197A3E3A083319760833197708360
:1006200031971082319760E860833197108231975B
:1006300062E06083319763E06083319764E06083B8
:10064000319765E06083319766E06083319767E0BA
:100650006083319768E06083319769E06083319708
:1006600060E1608331973083319732E13083319795
:1006700033E13083319734E13083319735E1308392
:10068000319736E13083319737E13083319738E164
:100690003083319739E13083319730E230833197BD
:1006A00031E2308331972083319723E220833197E1
:1006B000408331975083319726E22083319727E298
:1006C0002083319728E22083319729E220833197D4
:1006D00020E32083319721E32083869708951092A9
:1006E00089008CE7809388008BE080938100EFE69F
:1006F000F0E0808182608083A0918E07B0918F07A7
:10070000CD91CDBFDD91DEBFFF91EF91DF91CF9114
:10071000BF91AF919F918F917F916F915F914F9119
:100720003F912F911F910F91FF90EF90DF90CF900D
:10073000BF90AF909F908F907F906F905F904F9001
:100740003F902F901F900F900FBE0F90089581E063
:1007500008950F920FB6F8940F921F9211242F92C2
:100760003F924F925F926F927F928F929F92AF9241
:10077000BF92CF92DF92EF92FF920F931F932F932E
:100780003F934F935F936F937F938F939F93AF9319
:10079000BF93CF93DF93EF93FF93A0918E07B09118
:1007A0008F070DB60D920EB60D9270D3A0918E07E5
:1007B000B0918F07CD91CDBFDD91DEBFFF91EF915D
:1007C000DF91CF91BF91AF919F918F917F916F9169
:1007D0005F914F913F912F911F910F91FF90EF905B
:1007E000DF90CF90BF90AF909F908F907F906F9051
:1007F0005F904F903F902F901F900F900FBE0F90E3
:1008000008950F920FB6F8940F921F9211242F9211
:100810003F924F925F926F927F928F929F92AF9290
:10082000BF92CF92DF92EF92FF920F931F932F937D
:100830003F934F935F936F937F938F939F93AF9368
:10084000BF93CF93DF93EF93FF93A0918E07B09167
:100850008F070DB60D920EB60D9285D117D3A091CC
:100860008E07B0918F07CD91CDBFDD91DEBFFF9197
:10087000EF91DF91CF91BF91AF919F918F917F9138
:100880006F915F914F913F912F911F910F91FF9029
:10089000EF90DF90CF90BF90AF909F908F907F9020
:1008A0006F905F904F903F902F901F900F900FBED2
:1008B0000F900895A6DF1895CF93DF93EC01E09198
:1008C0008E07F0918F079383828380913E079091EA
:1008D0003F07C817D90760F460918E0770918F07A2
:1008E00080915407909155076E5F7F4F4BDC16C087
:1008F00060918E0770918F078091560790915707EE
:100900006E5F7F4F3FDC8091000190910101C8171D
:10091000D90720F4D0930101C0930001DF91CF915A
:1009200008954F925F926F927F928F929F92AF92B3
:10093000BF92CF92DF92EF92FF920F931F93CF93CC
:10094000DF935C014B013A01290181E290E0BCDBBD
:10095000EC01892B09F4C6C0C114D10409F0BEC052
:10096000C301B2DB988F8F8B009719F4CE01D0DBD7
:10097000B9C0A30165EA70E0F5D2930121503109B5
:100980008F89988D3C01620E731E48E050E0B401DF
:10099000CE014996EED218A2102F043008F013E0D1
:1009A0001E8B6E0182E0C80ED11CC601C0DBCE01D9
:1009B0000C96BDDBD987C88784E090E0811B910944
:1009C0009D878C87DB8BCA8BA201B501C3011BDE1F
:1009D00099838883E114F10419F0F701D183C0836E
:1009E0000FB6F8940F92809140078F5F8093400775
:1009F00080918E0790918F07892B69F5D0938F078F
:100A0000C0938E07809140078130A1F58AE697E078
:100A100080DB83E797E07DDB8CE797E07ADB85E896
:100A200097E077DB81E697E074DB88E597E071DBA0
:100A30008BE497E06EDB82E497E06BDB81E697E086
:100A4000909357078093560788E597E09093550752
:100A5000809354070FC080913B0781110BC0E09138
:100A60008E07F0918F078689081720F0D0938F07A3
:100A7000C0938E078E8990913D07981710F480934C
:100A80003D07909136079F5F9093360790913C0702
:100A9000981710F480933C0790E09C01220F331FBD
:100AA000220F331F220F331F820F931FB601865967
:100AB000984F41DB0F900FBE80913B07882351F088
:100AC000E0918E07F0918F078689801728F441DE28
:100AD00081E009C081E007C081E005C0D88ECF8ADF
:100AE000C60147CF8FEFDF91CF911F910F91FF90FC
:100AF000EF90DF90CF90BF90AF909F908F907F90BE
:100B00006F905F904F900895AF92BF92CF92DF9217
:100B1000EF92FF920F93A12CB12CC12CD12CE12C80
:100B2000F12C00E020E030E045E550E066E471E0C3
:100B300080E197E0F6DE813041F4F89480933B0742
:100B400010923F0710923E07CADD0F91FF90EF9081
:100B5000DF90CF90BF90AF90089580913A078F5F5C
:100B600080933A0708950F931F93CF93DF9380915B
:100B70003A078111AFC080913E0790913F070196DF
:100B800090933F0780933E0780913E0790913F07E7
:100B9000892B99F58091560790915707209154071A
:100BA0003091550730935707209356079093550778
:100BB00080935407809137078F5F80933707E091C8
:100BC0005607F09157078081811107C08FEF9FEF83
:100BD000909301018093000110C0E0915607F091BD
:100BE00057070580F681E02D0680F781E02D828190
:100BF0009381909301018093000120913E073091F1
:100C00003F0780910001909101012817390708F4EE
:100C100066C0E0915607F09157078081882399F0CC
:100C2000E0915607F09157070580F681E02DC681C7
:100C3000D7818A819B8120913E0730913F072817F9
:100C40003907F8F419C08FEF9FEF9093010180935B
:100C5000000145C0E0915607F09157070580F681E5
:100C6000E02DC681D7818A819B8120913E073091FA
:100C70003F072817390728F490930101809300015A
:100C80002EC08E010E5F1F4FC801B7DA8C899D8977
:100C9000892B19F0CE010C96B0DA8E8990913C0721
:100CA000981710F480933C0790E09C01220F331FAB
:100CB000220F331F220F331F820F931FB801865953
:100CC000984F39DAE0915607F091570780818111EA
:100CD000C1CFB9CF809139078F5F80933907DF91FA
:100CE000CF911F910F910895CF92DF92EF92FF92D3
:100CF0000F931F93CF93DF930FB6F8940F928091C9
:100D00003A07815080933A0780913A0781115FC07A
:100D10008091400781112FC05DC0D7011596ED91DC
:100D2000FC911697C681D781CE010C9666DA8E01AA
:100D30000E5F1F4FC80161DA8E8990913C079817AA
:100D400010F480933C0790E09C01220F331F220F88
:100D5000331F220F331F820F931FB8018659984FFC
:100D6000EAD9E0918E07F0918F079E8986899817BE
:100D700058F0DC2C09C0D12C0F2EFBE4EF2EF7E04D
:100D8000FF2EF02DCC24C394F70180818111C5CFB3
:100D900080913907882379F080913907882391F071
:100DA000E2DE8091390781508093390780913907BD
:100DB0008111F6CF07C0F1E0DF1621F080913807EE
:100DC000813039F410923807C4DC81E003C080E040
:100DD00001C080E00F900FBEDF91CF911F910F9166
:100DE000FF90EF90DF90CF900895CF93DF93EC01C9
:100DF000892B91F0B2DE80913E0790913F07C80F9A
:100E0000D91F80918E0790918F070296F6D9CE0157
:100E100053DD6ADF811101C09CDCDF91CF91089521
:100E20000F2EF2E4EF2EF7E0FF2EF02DCAE6D7E00A
:100E300080914107882329F190DED7011C9154DF6E
:100E40001123F9F00FB6F8940F92D7011596ED9192
:100E5000FC91169706811781C8010296CED9809120
:100E600040078150809340078091410781508093D3
:100E700041070F900FBEF8018789908D49D9C801AD
:100E800047D988818230A0F264DCD2CF80913A07C2
:100E9000811113C080913C0790E0FC01EE0FFF1F11
:100EA000EE0FFF1FEE0FFF1F8E0F9F1FFC01E65975
:100EB000F84F8081882329F01BC081E08093380798
:100EC000089580913C07815080933C0780913C07B6
:100ED00090E0FC01EE0FFF1FEE0FFF1FEE0FFF1F54
:100EE0008E0F9F1FFC01E659F84F8081882349F33C
:100EF00080913C0790E09C01220F331F220F331F8B
:100F0000220F331F280F391FD901A659B84F119648
:100F1000ED91FC9112970280F381E02D1296FC93E3
:100F2000EE9311972359384FE217F30729F42281E2
:100F30003381FD0132832183FC01EE0FFF1FEE0F91
:100F4000FF1FEE0FFF1F8E0F9F1FFC01E659F84F8A
:100F50000180F281E02D8681978190938F078093A5
:100F60008E070895DC0101C06D9341505040E0F7B9
:100F70000895FB01DC014150504048F001900D9272
:100F80000020C9F701C01D9241505040E0F708957C
:040F9000F894FFCF03
:100F9400FFFF5452414E534D495353494F4E5365ED
:100FA400635461736B004A4F595365635461736BA7
:100FB400005354454552494E475365635461736B1E
:100FC400004C45445365635461736B004952536547
:0C0FD400635461736B0049444C450000FD
:00000001FF
