S01D00005468726F74746C655F616E645F5374656572696E672E737265637F
S113000045C0000060C000005EC000005CC000008D
S11300105AC0000058C0000056C0000054C0000080
S113002052C0000050C000004EC000004CC0000090
S11300304AC000003AC4000046C0000044C00000AA
S113004042C0000040C000003EC000003CC00000B0
S11300503AC0000038C0000036C0000034C00000C0
S113006032C0000030C000002EC000002CC00000D0
S11300702AC0000028C0000026C0000024C00000E0
S113008022C0000020C000001EC0000011241FBEBA
S1130090CFEFD0E4DEBFCDBF11E0A0E0B1E0EAE8ED
S11300A0FFE000E00BBF02C007900D92A833B10738
S11300B0D9F727E0A8E3B1E001C01D92A138B20747
S11300C0E1F78AD260C79CCFCF93DF93EC0140D590
S11300D02091380130913901C9018C0F9D1F8C3D4D
S11300E045E0940758F42817390758F4E901C65C29
S11300F0DE4F909339018093380105C0C0E0D0E011
S113010002C0C0E0D0E0EBD5CE01DF91CF910895DD
S11301100895FC010396928381832FEF3FEF34838C
S11301202383968385839087878310820895FC01B7
S1130130118610860895CF93DF93FC01DB012181A2
S11301403281E9018A819B8113969C938E93129745
S11301508181928115969C938E9314978A819B81B9
S1130160EC017D836C83E9017B836A837283618301
S11301701996FC93EE93189780818F5F8083DF91AB
S1130180CF910895CF93DF93EB01488159814F3F7D
S11301902FEF520731F4DC011796ED91FC9118977B
S11301A017C0FC013396DC0115962D913C911697EE
S11301B0D9012D913C914217530750F00280F381ED
S11301C0E02DA281B3812D913C9142175307B0F7E2
S11301D0A281B381BB83AA831596DC93CE93149733
S11301E0FD83EC83D383C28399878887FC012081B4
S11301F02F5F2083DF91CF910895FC01A281B38109
S11302008481958115969C938E931497A481B581CE
S11302108281938113969C938E931297A085B185C6
S113022011968D919C911297E817F90731F4848106
S1130230958112969C938E931197118610868C91BA
S113024081508C93089580E480937C0087E88093A8
S11302507A000895ECE7F0E09081987F8770892B0D
S11302608083EAE7F0E0808180648083808186FD7A
S1130270FDCF8091780090917900089580917F0757
S1130280811140C0E7DF90931D0780931C079C01F8
S1130290255432402B38310520F481E08093220725
S11302A031C09C01215D32402B38310520F482E0BD
S11302B08093220727C08D3523E0920720F083E046
S11302C0809322071FC09C012F543140253A3105E9
S11302D020F481E08093210715C09C01285A31093C
S11302E0263A310520F482E0809321070BC0873A37
S11302F0910520F483E08093210704C01092220723
S11303001092210780917F07811110927F07089531
S113031010927F07B3DF8FE090E062D5FBCFAF92FE
S1130320BF92CF92DF92EF92FF920F93A12CB12C48
S1130330C12CD12CE12CF12C082F20E030E045E534
S113034050E062E071E088E891E0E6D20F91FF901E
S1130350EF90DF90CF90BF90AF9008958091800789
S1130360811119C081E076DF90931B0780931A07EF
S1130370853422E0920720F081E0809320070BC0AF
S1130380843F914020F481E080931F0704C01092C1
S1130390200710921F078091800781111092800717
S11303A0089510928007DADF8FE090E019D5FBCF33
S11303B0AF92BF92CF92DF92EF92FF920F93A12C54
S11303C0B12CC12CD12CE12CF12C082F20E030E0F1
S11303D045E550E06DE071E081ED91E09DD20F9133
S11303E0FF90EF90DF90CF90BF90AF9008958091F1
S11303F07D07811184C080912207813061F480914E
S11304001907811124C080911E07807C8460809329
S11304101E078BB94DC0823061F480911907811198
S113042016C080911E07807C866080931E078BB95E
S11304303FC0833061F480911907811108C0809115
S11304401E07807C876080931E078BB931C0809122
S11304502107813061F480911807811124C08091B3
S11304601E07807C886080931E078BB921C0823070
S113047061F480911807811116C080911E07807C59
S1130480886180931E078BB913C0833061F4809117
S11304901807811108C080911E07807C88638093AF
S11304A01E078BB905C080911E07807C80931E07B0
S11304B080912007813061F480911707811108C071
S11304C080911E078F73806480931E078BB918C0B8
S11304D080911F07882361F080911607811108C05D
S11304E080911E078F73806880931E078BB908C0A4
S11304F080911E078F7380931E078BB901C01BB8B0
S113050080917D07811110927D07089510927D07D7
S11305106EDF8FE090E064D4FBCFAF92BF92CF92B6
S1130520DF92EF92FF920F93A12CB12CC12CD12C0E
S1130530E12CF12C082F20E030E045E550E06DE19E
S113054071E086E892E0E8D10F91FF90EF90DF90A0
S1130550CF90BF90AF90089580917E0781110EC017
S113056080B1809585FF03C081E08093160780B138
S1130570809585FD05C01092160702C0811103C045
S113058010927E07089510927E07089510927E07B8
S1130590E3DF8AE090E024D4FBCFAF92BF92CF9206
S11305A0DF92EF92FF920F93A12CB12CC12CD12C8E
S11305B0E12CF12C082F20E030E045E550E068E222
S11305C071E086EC92E0A8D10F91FF90EF90DF905C
S11305D0CF90BF90AF90089511B88FEF82B98AB9C8
S11305E01BB831DE81E09BDE81E0E2DE8AE0D5DF0C
S11305F081E093DF84D280E090E0089531E1FC0152
S11306003083319722E220833197A3E3A08331978B
S113061060833197708331971082319760E86083EB
S113062031971082319762E06083319763E0608391
S1130630319764E06083319765E06083319766E0C9
S11306406083319767E06083319768E06083319716
S113065069E06083319760E160833197308331973B
S113066032E13083319733E13083319734E13083A1
S1130670319735E13083319736E13083319737E173
S11306803083319738E13083319739E130833197C2
S113069030E23083319731E23083319720833197D0
S11306A023E220833197408331975083319726E2A8
S11306B02083319727E22083319728E220833197E2
S11306C029E22083319720E32083319721E320839B
S11306D086970895109289008CE7809388008BE0B8
S11306E080938100EFE6F0E0808182608083A091B6
S11306F07B07B0917C07CD91CDBFDD91DEBFFF912B
S1130700EF91DF91CF91BF91AF919F918F917F91A5
S11307106F915F914F913F912F911F910F91FF9096
S1130720EF90DF90CF90BF90AF909F908F907F908D
S11307306F905F904F903F902F901F900F900FBE3F
S11307400F90089581E008950F920FB6F8940F92D8
S11307501F9211242F923F924F925F926F927F9239
S11307608F929F92AF92BF92CF92DF92EF92FF92BD
S11307700F931F932F933F934F935F936F937F93A5
S11307808F939F93AF93BF93CF93DF93EF93FF9395
S1130790A0917B07B0917C070DB60D920EB60D9219
S11307A070D3A0917B07B0917C07CD91CDBFDD9133
S11307B0DEBFFF91EF91DF91CF91BF91AF919F91F8
S11307C08F917F916F915F914F913F912F911F91E5
S11307D00F91FF90EF90DF90CF90BF90AF909F90DC
S11307E08F907F906F905F904F903F902F901F90CD
S11307F00F900FBE0F9008950F920FB6F8940F92BA
S11308001F9211242F923F924F925F926F927F9288
S11308108F929F92AF92BF92CF92DF92EF92FF920C
S11308200F931F932F933F934F935F936F937F93F4
S11308308F939F93AF93BF93CF93DF93EF93FF93E4
S1130840A0917B07B0917C070DB60D920EB60D9268
S113085085D117D3A0917B07B0917C07CD91CDBFF3
S1130860DD91DEBFFF91EF91DF91CF91BF91AF9109
S11308709F918F917F916F915F914F913F912F91B4
S11308801F910F91FF90EF90DF90CF90BF90AF90AA
S11308909F908F907F906F905F904F903F902F909C
S11308A01F900F900FBE0F900895A6DF1895CF9359
S11308B0DF93EC01E0917B07F0917C0793838283C3
S11308C080912B0790912C07C817D90760F4609189
S11308D07B0770917C0780914107909142076E5F7E
S11308E07F4F50DC16C060917B0770917C0780912C
S11308F04307909144076E5F7F4F44DC8091000171
S113090090910101C817D90720F4D0930101C09335
S11309100001DF91CF9108954F925F926F927F9281
S11309208F929F92AF92BF92CF92DF92EF92FF92FB
S11309300F931F93CF93DF935C014B013A0129017D
S113094081E290E0C1DBEC01892B09F4C6C0C1143B
S1130950D10409F0BEC0C301B7DB988F8F8B009719
S113096019F4CE01D5DBB9C0A30165EA70E0F5D274
S11309709301215031098F89988D3C01620E731EB9
S113098048E050E0B401CE014996EED218A2102FEF
S1130990043008F013E01E8B6E0182E0C80ED11CF7
S11309A0C601C5DBCE010C96C2DBD987C88784E0BB
S11309B090E0811B91099D878C87DB8BCA8BA201F8
S11309C0B501C3011BDE99838883E114F10419F096
S11309D0F701D183C0830FB6F8940F9280912D074D
S11309E08F5F80932D0780917B0790917C07892BE3
S11309F069F5D0937C07C0937B0780912D078130E4
S1130A00A1F587E597E085DB80E697E082DB89E660
S1130A1097E07FDB82E797E07CDB8EE497E079DB8D
S1130A2085E497E076DB88E397E073DB8FE297E079
S1130A3070DB8EE497E0909344078093430785E44A
S1130A4097E090934207809341070FC08091280755
S1130A5081110BC0E0917B07F0917C078689081710
S1130A6020F0D0937C07C0937B078E8990912A074E
S1130A70981710F480932A07909123079F5F90930F
S1130A80230790912907981710F48093290790E081
S1130A909C01220F331F220F331F220F331F820F9B
S1130AA0931FB601895A984F46DB0F900FBE809171
S1130AB02807882351F0E0917B07F0917C07868911
S1130AC0801728F441DE81E009C081E007C081E09D
S1130AD005C0D88ECF8AC60147CF8FEFDF91CF9163
S1130AE01F910F91FF90EF90DF90CF90BF90AF9048
S1130AF09F908F907F906F905F904F900895AF92EA
S1130B00BF92CF92DF92EF92FF920F93A12CB12C60
S1130B10C12CD12CE12CF12C00E020E030E045E5A3
S1130B2050E062E371E08BE097E0F6DE813041F45F
S1130B30F8948093280710922C0710922B07CADD93
S1130B400F91FF90EF90DF90CF90BF90AF900895FA
S1130B50809127078F5F8093270708950F931F9332
S1130B60CF93DF93809127078111AFC080912B072A
S1130B7090912C07019690932C0780932B078091DA
S1130B802B0790912C07892B99F58091430790911D
S1130B904407209141073091420730934407209342
S1130BA043079093420780934107809124078F5F06
S1130BB080932407E0914307F091440780818111D9
S1130BC007C08FEF9FEF909301018093000110C045
S1130BD0E0914307F09144070580F681E02D0680FB
S1130BE0F781E02D8281938190930101809300012C
S1130BF020912B0730912C078091000190910101E5
S1130C002817390708F466C0E0914307F0914407B8
S1130C108081882399F0E0914307F091440705808F
S1130C20F681E02DC681D7818A819B8120912B0793
S1130C3030912C0728173907F8F419C08FEF9FEF6C
S1130C40909301018093000145C0E0914307F09126
S1130C5044070580F681E02DC681D7818A819B8176
S1130C6020912B0730912C072817390728F49093EB
S1130C700101809300012EC08E010E5F1F4FC80139
S1130C80BCDA8C899D89892B19F0CE010C96B5DAD2
S1130C908E8990912907981710F48093290790E082
S1130CA09C01220F331F220F331F220F331F820F89
S1130CB0931FB801895A984F3EDAE0914307F091A7
S1130CC0440780818111C1CFB9CF809126078F5FFE
S1130CD080932607DF91CF911F910F910895CF92B2
S1130CE0DF92EF92FF920F931F93CF93DF930FB690
S1130CF0F8940F9280912707815080932707809161
S1130D00270781115FC080912D0781112FC05DC01D
S1130D10D7011596ED91FC911697C681D781CE0126
S1130D200C966BDA8E010E5F1F4FC80166DA8E894E
S1130D3090912907981710F48093290790E09C015B
S1130D40220F331F220F331F220F331F820F931FD3
S1130D50B801895A984FEFD9E0917B07F0917C074D
S1130D609E898689981758F0DC2C09C0D12C0F2E47
S1130D70F8E3EF2EF7E0FF2EF02DCC24C394F70117
S1130D8080818111C5CF80912607882379F08091D5
S1130D902607882391F0E2DE809126078150809314
S1130DA02607809126078111F6CF07C0F1E0DF16F0
S1130DB021F080912507813039F410922507C4DC95
S1130DC081E003C080E001C080E00F900FBEDF919E
S1130DD0CF911F910F91FF90EF90DF90CF900895E6
S1130DE0CF93DF93EC01892B91F0B2DE80912B0736
S1130DF090912C07C80FD91F80917B0790917C0795
S1130E000296FBD9CE0153DD6ADF811101C09CDC5F
S1130E10DF91CF9108950F2EFFE2EF2EF7E0FF2E22
S1130E20F02DC7E5D7E080912E07882329F190DEC5
S1130E30D7011C9154DF1123F9F00FB6F8940F92E7
S1130E40D7011596ED91FC91169706811781C8017B
S1130E500296D3D980912D07815080932D078091DC
S1130E602E07815080932E070F900FBEF8018789BB
S1130E70908D4ED9C8014CD988818230A0F264DCAF
S1130E80D2CF80912707811113C08091290790E068
S1130E90FC01EE0FFF1FEE0FFF1FEE0FFF1F8E0F63
S1130EA09F1FFC01E95AF84F8081882329F01BC059
S1130EB081E08093250708958091290781508093CC
S1130EC029078091290790E0FC01EE0FFF1FEE0F28
S1130ED0FF1FEE0FFF1F8E0F9F1FFC01E95AF84FF3
S1130EE08081882349F38091290790E09C01220F97
S1130EF0331F220F331F220F331F280F391FD9012D
S1130F00A95AB84F1196ED91FC9112970280F38182
S1130F10E02D1296FC93EE931197265A384FE21760
S1130F20F30729F422813381FD0132832183FC01FB
S1130F30EE0FFF1FEE0FFF1FEE0FFF1F8E0F9F1F01
S1130F40FC01E95AF84F0180F281E02D86819781F6
S1130F5090937C0780937B070895DC0101C06D9317
S1130F6041505040E0F70895FB01DC0141505040EE
S1130F7048F001900D920020C9F701C01D92415024
S10D0F805040E0F70895F894FFCF05
S1130F8AFFFF4A4F595365635461736B00535445C9
S1130F9A4552494E475365635461736B004C45444B
S1130FAA5365635461736B004952536563546173A7
S10B0FBA6B0049444C450000A2
S9030000FC
