S01000004443204D6F746F722E737265635C
S113000045C0000060C000005EC000005CC000008D
S11300105AC0000058C0000056C0000054C0000080
S113002052C0000050C000004EC000004CC0000090
S11300304AC0000051C3000046C0000044C0000094
S113004042C0000040C000003EC000003CC00000B0
S11300503AC0000038C0000036C0000034C00000C0
S113006032C0000030C000002EC000002CC00000D0
S11300702AC0000028C0000026C0000024C00000E0
S113008022C0000020C000001EC0000011241FBEBA
S1130090CFEFD0E4DEBFCDBF11E0A0E0B1E0E8EBEC
S11300A0FDE000E00BBF02C007900D92A433B1073E
S11300B0D9F727E0A4E3B1E001C01D92A137B2074C
S11300C0E1F7A2D177C69CCFCF93DF93EC0157D44D
S11300D02091340130913501C9018C0F9D1F8C3D55
S11300E045E0940758F42817390758F4E901CA5C25
S11300F0DE4F909335018093340105C0C0E0D0E019
S113010002C0C0E0D0E002D5CE01DF91CF910895C6
S11301100895FC010396928381832FEF3FEF34838C
S11301202383968385839087878310820895FC01B7
S1130130118610860895CF93DF93FC01DB012181A2
S11301403281E9018A819B8113969C938E93129745
S11301508181928115969C938E9314978A819B81B9
S1130160EC017D836C83E9017B836A837283618301
S11301701996FC93EE93189780818F5F8083DF91AB
S1130180CF910895CF93DF93EB01488159814F3F7D
S11301902FEF520731F4DC011796ED91FC9118977B
S11301A017C0FC013396DC0115962D913C911697EE
S11301B0D9012D913C914217530750F00280F381ED
S11301C0E02DA281B3812D913C9142175307B0F7E2
S11301D0A281B381BB83AA831596DC93CE93149733
S11301E0FD83EC83D383C28399878887FC012081B4
S11301F02F5F2083DF91CF910895FC01A281B38109
S11302008481958115969C938E931497A481B581CE
S11302108281938113969C938E931297A085B185C6
S113022011968D919C911297E817F90731F4848106
S1130230958112969C938E931197118610868C91BA
S113024081508C93089580916F07882319F0813031
S113025021F130C000990CC080B1809581FD08C0A7
S113026081E0809313071092120780936F0708951B
S1130270009B0CC080B1809581FF08C010921307C9
S113028081E08093120780936F07089510921307FB
S11302901092120710926F070895009B0DC080B151
S11302A0809581FD09C010921307109212071092D5
S11302B06F07089510926F07089510926F07C3DFB8
S11302C084E690E0A4D4FBCFAF92BF92CF92DF92AA
S11302D0EF92FF920F93A12CB12CC12CD12CE12CC5
S11302E0F12C082F20E030E045E550E062E071E0B9
S11302F08DE591E028D20F91FF90EF90DF90CF90A1
S1130300BF90AF90089580916E07882319F08130D3
S113031059F0089580911307882371F081E0809348
S11303206E0788B98BB9089580911307811104C0B1
S113033010926E0718B81BB8089510926E07E3DF89
S113034084E690E064D4FBCFAF92BF92CF92DF9269
S1130350EF92FF920F93A12CB12CC12CD12CE12C44
S1130360F12C082F20E030E045E550E060E171E039
S11303708DE991E0E8D10F91FF90EF90DF90CF905D
S1130380BF90AF90089580917007882319F0813051
S113039061F0089580911207882379F081E08093B9
S11303A0700782E088B98BB9089580911207811192
S11303B004C01092700718B81BB808951092700703
S11303C0E2DF84E690E023D4FBCFAF92BF92CF92DA
S11303D0DF92EF92FF920F93A12CB12CC12CD12C60
S11303E0E12CF12C082F20E030E045E550E06FE1EE
S11303F071E08EED91E0A7D10F91FF90EF90DF9027
S1130400CF90BF90AF90089511B88FEF82B987B99C
S113041018B88AB91BB881E057DF81E095DF81E025
S1130420D4DF84D280E090E0089531E1FC01308390
S1130430319722E220833197A3E3A083319760832D
S11304403197708331971082319760E860833197D8
S11304501082319762E06083319763E06083319763
S113046064E06083319765E06083319766E0608380
S1130470319767E06083319768E06083319769E082
S11304806083319760E1608331973083319732E143
S11304903083319733E13083319734E130833197BE
S11304A035E13083319736E13083319737E130835A
S11304B0319738E13083319739E13083319730E235
S11304C03083319731E2308331972083319723E2AF
S11304D020833197408331975083319726E22083DC
S11304E0319727E22083319728E22083319729E24C
S11304F02083319720E32083319721E3208386975B
S11305000895109289008CE7809388008BE0809393
S11305108100EFE6F0E0808182608083A0916C0727
S1130520B0916D07CD91CDBFDD91DEBFFF91EF910D
S1130530DF91CF91BF91AF919F918F917F916F91F7
S11305405F914F913F912F911F910F91FF90EF90E9
S1130550DF90CF90BF90AF909F908F907F906F90DF
S11305605F904F903F902F901F900F900FBE0F9071
S1130570089581E008950F920FB6F8940F921F9298
S113058011242F923F924F925F926F927F928F929B
S11305909F92AF92BF92CF92DF92EF92FF920F930E
S11305A01F932F933F934F935F936F937F938F93F7
S11305B09F93AF93BF93CF93DF93EF93FF93A09158
S11305C06C07B0916D070DB60D920EB60D9270D3F7
S11305D0A0916C07B0916D07CD91CDBFDD91DEBFC9
S11305E0FF91EF91DF91CF91BF91AF919F918F9147
S11305F07F916F915F914F913F912F911F910F9137
S1130600FF90EF90DF90CF90BF90AF909F908F902E
S11306107F906F905F904F903F902F901F900F901E
S11306200FBE0F9008950F920FB6F8940F921F9279
S113063011242F923F924F925F926F927F928F92EA
S11306409F92AF92BF92CF92DF92EF92FF920F935D
S11306501F932F933F934F935F936F937F938F9346
S11306609F93AF93BF93CF93DF93EF93FF93A091A7
S11306706C07B0916D070DB60D920EB60D9285D133
S113068017D3A0916C07B0916D07CD91CDBFDD91CB
S1130690DEBFFF91EF91DF91CF91BF91AF919F9119
S11306A08F917F916F915F914F913F912F911F9106
S11306B00F91FF90EF90DF90CF90BF90AF909F90FD
S11306C08F907F906F905F904F903F902F901F90EE
S11306D00F900FBE0F900895A6DF1895CF93DF9368
S11306E0EC01E0916C07F0916D0793838283809114
S11306F01C0790911D07C817D90760F460916C0717
S113070070916D0780913207909133076E5F7F4F30
S113071039DD16C060916C0770916D0780913407C4
S1130720909135076E5F7F4F2DDD80910001909190
S11307300101C817D90720F4D0930101C093000127
S1130740DF91CF9108954F925F926F927F928F9233
S11307509F92AF92BF92CF92DF92EF92FF920F934C
S11307601F93CF93DF935C014B013A01290181E28E
S113077090E0AADCEC01892B09F4C6C0C114D104B1
S113078009F0BEC0C301A0DC988F8F8B009719F4C9
S1130790CE01BEDCB9C0A30165EA70E0F5D29301D5
S11307A0215031098F89988D3C01620E731E48E0F7
S11307B050E0B401CE014996EED218A2102F0430B5
S11307C008F013E01E8B6E0182E0C80ED11CC60136
S11307D0AEDCCE010C96ABDCD987C88784E090E010
S11307E0811B91099D878C87DB8BCA8BA201B50184
S11307F0C3011BDE99838883E114F10419F0F70126
S1130800D183C0830FB6F8940F9280911E078F5F37
S113081080931E0780916C0790916D07892B69F571
S1130820D0936D07C0936C0780911E078130A1F5AA
S113083088E497E06EDC81E597E06BDC8AE597E07D
S113084068DC83E697E065DC8FE397E062DC86E3AF
S113085097E05FDC89E297E05CDC80E297E059DCBA
S11308608FE397E0909335078093340786E397E00E
S113087090933307809332070FC080911907811139
S11308800BC0E0916C07F0916D078689081720F082
S1130890D0936D07C0936C078E8990911B079817AE
S11308A010F480931B07909114079F5F9093140793
S11308B090911A07981710F480931A0790E09C01FE
S11308C0220F331F220F331F220F331F820F931F58
S11308D0B601885B984F2FDC0F900FBE80911907EB
S11308E0882351F0E0916C07F0916D078689801799
S11308F028F441DE81E009C081E007C081E005C041
S1130900D88ECF8AC60147CF8FEFDF91CF911F9149
S11309100F91FF90EF90DF90CF90BF90AF909F909A
S11309208F907F906F905F904F900895AF92BF9299
S1130930CF92DF92EF92FF920F93A12CB12CC12C96
S1130940D12CE12CF12C00E020E030E045E550E032
S11309506EE271E082E296E0F6DE813041F4F894D2
S11309608093190710921D0710921C07CADD0F917E
S1130970FF90EF90DF90CF90BF90AF90089580915B
S113098018078F5F8093180708950F931F93CF93D1
S1130990DF93809118078111AFC080911C0790915B
S11309A01D07019690931D0780931C0780911C07D7
S11309B090911D07892B99F5809134079091350703
S11309C02091320730913307309335072093340751
S11309D09093330780933207809115078F5F80933C
S11309E01507E0913407F09135078081811107C024
S11309F08FEF9FEF909301018093000110C0E0916D
S1130A003407F09135070580F681E02D0680F781E3
S1130A10E02D8281938190930101809300012091C4
S1130A201C0730911D078091000190910101281746
S1130A30390708F466C0E0913407F09135078081E6
S1130A40882399F0E0913407F09135070580F68109
S1130A50E02DC681D7818A819B8120911C0730912A
S1130A601D0728173907F8F419C08FEF9FEF9093EB
S1130A7001018093000145C0E0913407F0913507EE
S1130A800580F681E02DC681D7818A819B812091E2
S1130A901C0730911D072817390728F4909301018A
S1130AA0809300012EC08E010E5F1F4FC801A5DB8D
S1130AB08C899D89892B19F0CE010C969EDB8E8939
S1130AC090911A07981710F480931A0790E09C01EC
S1130AD0220F331F220F331F220F331F820F931F46
S1130AE0B801885B984F27DBE0913407F091350714
S1130AF080818111C1CFB9CF809117078F5F809317
S1130B001707DF91CF911F910F910895CF92DF9234
S1130B10EF92FF920F931F93CF93DF930FB6F89446
S1130B200F928091180781508093180780911807BD
S1130B3081115FC080911E0781112FC05DC0D70154
S1130B401596ED91FC911697C681D781CE010C962E
S1130B5054DB8E010E5F1F4FC8014FDB8E899091CD
S1130B601A07981710F480931A0790E09C01220F3B
S1130B70331F220F331F220F331F820F931FB8011D
S1130B80885B984FD8DAE0916C07F0916D079E89E5
S1130B908689981758F0DC2C09C0D12C0F2EF9E265
S1130BA0EF2EF7E0FF2EF02DCC24C394F7018081C3
S1130BB08111C5CF80911707882379F08091170799
S1130BC0882391F0E2DE8091170781508093170704
S1130BD0809117078111F6CF07C0F1E0DF1621F0ED
S1130BE080911607813039F410921607C4DC81E035
S1130BF003C080E001C080E00F900FBEDF91CF9171
S1130C001F910F91FF90EF90DF90CF900895CF93B5
S1130C10DF93EC01892B91F0B2DE80911C07909157
S1130C201D07C80FD91F80916C0790916D0702961C
S1130C30E4DACE0153DD6ADF811101C09CDCDF916F
S1130C40CF9108950F2EF0E2EF2EF7E0FF2EF02D56
S1130C50C8E4D7E080911F07882329F190DED701EB
S1130C601C9154DF1123F9F00FB6F8940F92D701B9
S1130C701596ED91FC91169706811781C80102968D
S1130C80BCDA80911E07815080931E0780911F0754
S1130C90815080931F070F900FBEF8018789908DB4
S1130CA037DAC80135DA88818230A0F264DCD2CF29
S1130CB080911807811113C080911A0790E0FC01FC
S1130CC0EE0FFF1FEE0FFF1FEE0FFF1F8E0F9F1F74
S1130CD0FC01E85BF84F8081882329F01BC081E088
S1130CE080931607089580911A07815080931A07FC
S1130CF080911A0790E0FC01EE0FFF1FEE0FFF1F1B
S1130D00EE0FFF1F8E0F9F1FFC01E85BF84F8081E1
S1130D10882349F380911A0790E09C01220F331F26
S1130D20220F331F220F331F280F391FD901A85B4D
S1130D30B84F1196ED91FC9112970280F381E02D4A
S1130D401296FC93EE931197255B384FE217F30745
S1130D5029F422813381FD0132832183FC01EE0FCA
S1130D60FF1FEE0FFF1FEE0FFF1F8E0F9F1FFC01D3
S1130D70E85BF84F0180F281E02D868197819093A2
S1130D806D0780936C070895DC0101C06D93415099
S1130D905040E0F70895FB01DC014150504048F019
S1130DA001900D920020C9F701C01D92415050409E
S10B0DB0E0F70895F894FFCF69
S1130DB8FFFF427574746F6E5365635461736B00FF
S1130DC8466F72776172645365635461736B005242
S1130DD86576657273655365635461736B00494442
S1070DE84C45000072
S9030000FC
