:1000000045C0000061C000005FC000005DC000008E
:100010005BC0000059C0000057C0000055C0000080
:1000200053C0000051C000004FC000004DC0000090
:100030004BC0000034C5000047C0000045C00000B0
:1000400043C0000041C000003FC000003DC00000B0
:100050003BC0000039C0000037C0000035C00000C0
:1000600033C0000031C000002FC000002DC00000D0
:100070002BC0000029C0000027C0000025C00000E0
:1000800023C0000021C000001FC0000011241FBEBB
:10009000CFEFD0E4DEBFCDBF11E0A0E0B1E0EEE7EE
:1000A000F1E100E00BBF02C007900D92A235B1074D
:1000B000D9F727E0A2E5B1E001C01D92AB39B20744
:1000C000E1F77ED30C94BD089BCFCF93DF93EC0177
:1000D00039D62091520130915301C9018C0F9D1FD7
:1000E0008C3D45E0940758F42817390758F4E90186
:1000F000CC5ADE4F909353018093520105C0C0E06B
:10010000D0E002C0C0E0D0E0E4D6CE01DF91CF91D4
:1001100008950895FC010396928381832FEF3FEFAA
:100120003483238396838583908787831082089501
:10013000FC01118610860895CF93DF93FC01DB014B
:1001400021813281E9018A819B8113969C938E9350
:1001500012978181928115969C938E9314978A8130
:100160009B81EC017D836C83E9017B836A837283CD
:1001700061831996FC93EE93189780818F5F80833B
:10018000DF91CF910895CF93DF93EB01488159819F
:100190004F3F2FEF520731F4DC011796ED91FC91A0
:1001A000189717C0FC013396DC0115962D913C91F0
:1001B0001697D9012D913C914217530750F00280B8
:1001C000F381E02DA281B3812D913C914217530719
:1001D000B0F7A281B381BB83AA831596DC93CE933B
:1001E0001497FD83EC83D383C28399878887FC01AE
:1001F00020812F5F2083DF91CF910895FC01A281A0
:10020000B3818481958115969C938E931497A481D4
:10021000B5818281938113969C938E931297A085CA
:10022000B18511968D919C911297E817F90731F4D9
:100230008481958112969C938E93119711861086D6
:100240008C9181508C93089580E480937C0087E8A2
:1002500080937A000895813081F0E1ECF0E08081B4
:1002600088618083E2ECF0E080818660808383E3B4
:100270008093C4001092C5000895E9ECF0E08081FD
:1002800088618083EAECF0E080818660808383E38C
:100290008093CC001092CD000895813029F4809194
:1002A000C800882374F008958091C00088238CF4DE
:1002B000A6ECB0E0E0ECF0E08C9180818823E4F3E0
:1002C0000895AEECB0E0E8ECF0E08C9180818823FA
:1002D000E4F30895813041F0E0ECF0E08081882380
:1002E000ECF78091C6000895E8ECF0E08081882367
:1002F000ECF78091CE000895AF92BF92CF92DF923B
:10030000EF92FF920F931F93CF93DF938091960705
:10031000813009F0A1C080E0DDDF8093300780E00C
:10032000BCDF20913007822F31E022FB002700F94B
:1003300010E022FF30E030933207012B19F131E059
:1003400030933807322F317081FBAA24A0F8B12CEA
:10035000A114B10431F4332391F081E080933A0782
:100360003EC0AB2861F0311104C082E080933A07AF
:1003700036C0332321F083E080933A0730C01092D7
:100380003A072DC0009B04C031E03093390702C00A
:1003900010923907322F317081FBCC24C0F8D12C58
:1003A000C114D10431F4332391F081E080933B07F1
:1003B00016C0CD2861F0311104C082E080933B0764
:1003C0000EC0332321F083E080933B0708C01092D6
:1003D00039071092380710923B0710923A07809124
:1003E000300721E083FBEE24E0F8F12C83FF20E0CE
:1003F0002093320791E084FB222720F9C22F20E0CE
:10040000D22F84FF90E090933107209779F4EF2862
:10041000E9F080B1809583FD19C081E080933607B3
:100420001092350782E08093340716C0CD2B71F00F
:10043000EF2861F480B1809582FD08C010923607E4
:1004400081E0809335078093340706C01092360709
:10045000109235071092340780919607882319F07F
:100460001092960707C08091C00088231CF481E099
:1004700080939607DF91CF911F910F91FF90EF909E
:10048000DF90CF90BF90AF9008951092960734DF21
:1004900083E090E09FD5FBCFAF92BF92CF92DF92E7
:1004A000EF92FF920F93A12CB12CC12CD12CE12CF7
:1004B000F12C082F20E030E045E550E063E071E0EA
:1004C00085E492E023D30F91FF90EF90DF90CF90DF
:1004D000BF90AF90089580919907811102C080B1BB
:1004E0000895811110929907089510929907F3DFEA
:1004F00081E090E06FD5FBCFAF92BF92CF92DF92B9
:10050000EF92FF920F93A12CB12CC12CD12CE12C96
:10051000F12C082F20E030E045E550E067E171E084
:1005200085E792E0F3D20F91FF90EF90DF90CF90AC
:10053000BF90AF900895809197078130A9F018F08F
:10054000823059F10895809139078823F1F191E0C3
:100550009093970720913B0783E0821B80930001D3
:100560001092370798B9089580913907882389F048
:100570008091370790913B07891720F48F5F809314
:100580003707089582E0809397071092370718B8CD
:1005900008951092970718B8089580913907882315
:1005A00089F08091370790910001891720F48F5FBF
:1005B00080933707089581E080939707109237075B
:1005C00088B908951092970718B808951092970760
:1005D000B2DF83E090E0FED4FBCFAF92BF92CF9228
:1005E000DF92EF92FF920F93A12CB12CC12CD12C52
:1005F000E12CF12C082F20E030E045E550E061E2ED
:1006000071E086EE92E082D20F91FF90EF90DF9042
:10061000CF90BF90AF90089580919A078130B9F044
:1006200018F0823069F1089580913807882309F421
:1006300040C081E080939A0790913A0783E0891B3C
:10064000809300011092370782E088B90895809165
:100650003807882389F08091370790913A078917E6
:1006600020F48F5F80933707089582E080939A0784
:100670001092370718B8089510929A0718B808957D
:1006800080913807882391F080913707909100017D
:10069000891720F48F5F80933707089581E0809356
:1006A0009A071092370782E088B9089510929A0746
:1006B00018B8089510929A07AFDF83E090E08AD4CB
:1006C000FBCFAF92BF92CF92DF92EF92FF920F9348
:1006D000A12CB12CC12CD12CE12CF12C082F20E025
:1006E00030E045E550E060E371E08AE593E00ED24A
:1006F0000F91FF90EF90DF90CF90BF90AF90089553
:1007000080919807882319F08130A1F030C0809142
:100710003507811104C080913607882339F081E0C4
:10072000809398071092330785B9089515B81092F1
:10073000980708958091330790913407891778F4CA
:1007400090913507911104C090913607992339F0A3
:100750008F5F8093330781E080939807089510920C
:1007600035071092360715B8109298070895109221
:100770009807089510929807C3DF81E090E02AD48B
:10078000FBCFAF92BF92CF92DF92EF92FF920F9387
:10079000A12CB12CC12CD12CE12CF12C082F20E064
:1007A00030E045E550E06FE371E08AEB93E0AED1D5
:1007B0000F91FF90EF90DF90CF90BF90AF90089592
:1007C00011B88FEF82B984B915B887B918B83CDD74
:1007D00080E041DD81E060DE8AE08EDE81E0FDDEEA
:1007E00081E06FDF81E0CDDF84D280E090E008958A
:1007F00031E1FC013083319722E220833197A3E37A
:10080000A08331976083319770833197108231973D
:1008100060E8608331971082319762E0608331979E
:1008200063E06083319764E06083319765E06083C3
:10083000319766E06083319767E06083319768E0C5
:100840006083319769E06083319760E1608331971D
:100850003083319732E13083319733E13083319700
:1008600034E13083319735E13083319736E130839D
:10087000319737E13083319738E13083319739E16F
:100880003083319730E23083319731E230833197D2
:100890002083319723E2208331974083319750831F
:1008A000319726E22083319727E22083319728E28F
:1008B0002083319729E22083319720E320833197E9
:1008C00021E3208386970895109289008CE7809316
:1008D00088008BE080938100EFE6F0E08081826009
:1008E0008083A0919407B0919507CD91CDBFDD9104
:1008F000DEBFFF91EF91DF91CF91BF91AF919F91BB
:100900008F917F916F915F914F913F912F911F91A7
:100910000F91FF90EF90DF90CF90BF90AF909F909E
:100920008F907F906F905F904F903F902F901F908F
:100930000F900FBE0F90089581E008950F920FB6AB
:10094000F8940F921F9211242F923F924F925F9230
:100950006F927F928F929F92AF92BF92CF92DF92CF
:10096000EF92FF920F931F932F933F934F935F93B9
:100970006F937F938F939F93AF93BF93CF93DF93A7
:10098000EF93FF93A0919407B09195070DB60D9248
:100990000EB60D9270D3A0919407B0919507CD91AA
:1009A000CDBFDD91DEBFFF91EF91DF91CF91BF9180
:1009B000AF919F918F917F916F915F914F913F91F7
:1009C0002F911F910F91FF90EF90DF90CF90BF90EC
:1009D000AF909F908F907F906F905F904F903F90DF
:1009E0002F901F900F900FBE0F9008950F920FB68B
:1009F000F8940F921F9211242F923F924F925F9280
:100A00006F927F928F929F92AF92BF92CF92DF921E
:100A1000EF92FF920F931F932F933F934F935F9308
:100A20006F937F938F939F93AF93BF93CF93DF93F6
:100A3000EF93FF93A0919407B09195070DB60D9297
:100A40000EB60D9285D117D3A0919407B09195075A
:100A5000CD91CDBFDD91DEBFFF91EF91DF91CF91C1
:100A6000BF91AF919F918F917F916F915F914F91C6
:100A70003F912F911F910F91FF90EF90DF90CF90BA
:100A8000BF90AF909F908F907F906F905F904F90AE
:100A90003F902F901F900F900FBE0F900895A6DFEC
:100AA0001895CF93DF93EC01E0919407F0919507AF
:100AB000938382838091440790914507C817D90793
:100AC00060F4609194077091950780915A07909116
:100AD0005B076E5F7F4F57DB16C060919407709184
:100AE000950780915C0790915D076E5F7F4F4BDBB0
:100AF0008091010190910201C817D90720F4D09389
:100B00000201C0930101DF91CF9108954F925F924E
:100B10006F927F928F929F92AF92BF92CF92DF920D
:100B2000EF92FF920F931F93CF93DF935C014B01E2
:100B30003A01290181E290E0C8DAEC01892B09F43D
:100B4000C6C0C114D10409F0BEC0C301BEDA988F7B
:100B50008F8B009719F4CE01DCDAB9C0A30165EAE6
:100B600070E0F5D29301215031098F89988D3C01B5
:100B7000620E731E48E050E0B401CE014996EED2F9
:100B800018A2102F043008F013E01E8B6E0182E0D3
:100B9000C80ED11CC601CCDACE010C96C9DAD987B1
:100BA000C88784E090E0811B91099D878C87DB8B4F
:100BB000CA8BA201B501C3011BDE99838883E114AE
:100BC000F10419F0F701D183C0830FB6F8940F92A6
:100BD000809146078F5F809346078091940790919C
:100BE0009507892B69F5D0939507C0939407809159
:100BF00046078130A1F580E797E08CDA89E797E036
:100C000089DA82E897E086DA8BE897E083DA87E68C
:100C100097E080DA8EE597E07DDA81E597E07ADA91
:100C200088E497E077DA87E697E090935D07809312
:100C30005C078EE597E090935B0780935A070FC09F
:100C40008091410781110BC0E0919407F0919507C5
:100C50008689081720F0D0939507C09394078E8952
:100C600090914307981710F48093430790913C07A5
:100C70009F5F90933C0790914207981710F48093E0
:100C8000420790E09C01220F331F220F331F220FD7
:100C9000331F820F931FB6018059984F4DDA0F9082
:100CA0000FBE80914107882351F0E0919407F091A5
:100CB00095078689801728F441DE81E009C081E02C
:100CC00007C081E005C0D88ECF8AC60147CF8FEF1D
:100CD000DF91CF911F910F91FF90EF90DF90CF9018
:100CE000BF90AF909F908F907F906F905F904F904C
:100CF0000895AF92BF92CF92DF92EF92FF920F933F
:100D0000A12CB12CC12CD12CE12CF12C00E020E045
:100D100030E045E550E06CE471E085E098E0F6DE17
:100D2000813041F4F8948093410710924507109266
:100D30004407CADD0F91FF90EF90DF90CF90BF90F6
:100D4000AF900895809140078F5F8093400708958A
:100D50000F931F93CF93DF93809140078111AFC012
:100D600080914407909145070196909345078093A1
:100D700044078091440790914507892B99F580910C
:100D80005C0790915D0720915A0730915B07309383
:100D90005D0720935C0790935B0780935A078091CF
:100DA0003D078F5F80933D07E0915C07F0915D0701
:100DB0008081811107C08FEF9FEF90930201809394
:100DC000010110C0E0915C07F0915D070580F6819C
:100DD000E02D0680F781E02D8281938190930201BE
:100DE00080930101209144073091450780910101D2
:100DF000909102012817390708F466C0E0915C075A
:100E0000F0915D078081882399F0E0915C07F09173
:100E10005D070580F681E02DC681D7818A819B819F
:100E2000209144073091450728173907F8F419C075
:100E30008FEF9FEF909302018093010145C0E091F5
:100E40005C07F0915D070580F681E02DC681D781B2
:100E50008A819B81209144073091450728173907E3
:100E600028F490930201809301012EC08E010E5F41
:100E70001F4FC801C3D98C899D89892B19F0CE01D8
:100E80000C96BCD98E8990914207981710F48093E4
:100E9000420790E09C01220F331F220F331F220FC5
:100EA000331F820F931FB8018059984F45D9E091A5
:100EB0005C07F0915D0780818111C1CFB9CF80912E
:100EC0003F078F5F80933F07DF91CF911F910F9175
:100ED0000895CF92DF92EF92FF920F931F93CF93DB
:100EE000DF930FB6F8940F92809140078150809362
:100EF00040078091400781115FC0809146078111B2
:100F00002FC05DC0D7011596ED91FC911697C68153
:100F1000D781CE010C9672D98E010E5F1F4FC8018A
:100F20006DD98E8990914207981710F480934207EB
:100F300090E09C01220F331F220F331F220F331F1B
:100F4000820F931FB8018059984FF6D8E09194070B
:100F5000F09195079E898689981758F0DC2C09C076
:100F6000D12C0F2EF1E5EF2EF7E0FF2EF02DCC2443
:100F7000C394F70180818111C5CF80913F078823F9
:100F800079F080913F07882391F0E2DE80913F075E
:100F9000815080933F0780913F078111F6CF07C0B2
:100FA000F1E0DF1621F080913E07813039F4109294
:100FB0003E07C4DC81E003C080E001C080E00F9008
:100FC0000FBEDF91CF911F910F91FF90EF90DF90B7
:100FD000CF900895CF93DF93EC01892B91F0B2DE8F
:100FE0008091440790914507C80FD91F80919407BD
:100FF00090919507029602D9CE0153DD6ADF8111E7
:1010000001C09CDCDF91CF9108950F2EF8E4EF2E04
:10101000F7E0FF2EF02DC0E7D7E080914707882347
:1010200029F190DED7011C9154DF1123F9F00FB69E
:10103000F8940F92D7011596ED91FC9116970681C1
:101040001781C8010296DAD88091460781508093B3
:101050004607809147078150809347070F900FBE46
:10106000F8018789908D55D8C80153D8888182307E
:10107000A0F264DCD2CF80914007811113C080912F
:10108000420790E0FC01EE0FFF1FEE0FFF1FEE0F77
:10109000FF1F8E0F9F1FFC01E059F84F80818823AE
:1010A00029F01BC081E080933E070895809142079C
:1010B0008150809342078091420790E0FC01EE0F3F
:1010C000FF1FEE0FFF1FEE0FFF1F8E0F9F1FFC0174
:1010D000E059F84F8081882349F38091420790E0DE
:1010E0009C01220F331F220F331F220F331F280FA3
:1010F000391FD901A059B84F1196ED91FC91129763
:101100000280F381E02D1296FC93EE9311972D58F7
:10111000384FE217F30729F422813381FD0132832E
:101120002183FC01EE0FFF1FEE0FFF1FEE0FFF1FCD
:101130008E0F9F1FFC01E059F84F0180F281E02DD6
:101140008681978190939507809394070895DC0199
:1011500001C06D9341505040E0F70895FB01DC0160
:101160004150504048F001900D920020C9F701C055
:0E1170001D9241505040E0F70895F894FFCFD3
:10117E000AFFFF5452414E534D495353494F4E535C
:10118E0065635461736B0049525365635461736BAD
:10119E0000466F72776172645365635461736B00BE
:1011AE00526576657273655365635461736B005354
:1011BE004552564F5365635461736B0049444C4519
:0211CE0000001F
:00000001FF
