:1000000045C0000061C000005FC000005DC000008E
:100010005BC0000059C0000057C0000055C0000080
:1000200053C0000051C000004FC000004DC0000090
:100030004BC00000EFC4000047C0000045C00000F6
:1000400043C0000041C000003FC000003DC00000B0
:100050003BC0000039C0000037C0000035C00000C0
:1000600033C0000031C000002FC000002DC00000D0
:100070002BC0000029C0000027C0000025C00000E0
:1000800023C0000021C000001FC0000011241FBEBB
:10009000CFEFD0E4DEBFCDBF11E0A0E0B1E0E4EFF0
:1000A000F0E100E00BBF02C007900D92A834B10749
:1000B000D9F727E0A8E4B1E001C01D92A039B2074A
:1000C000E1F73BD30C9478089BCFCF93DF93EC01FF
:1000D000F4D52091480130914901C9018C0F9D1F31
:1000E0008C3D45E0940758F42817390758F4E90186
:1000F000C65BDE4F909349018093480105C0C0E084
:10010000D0E002C0C0E0D0E09FD6CE01DF91CF9119
:1001100008950895FC010396928381832FEF3FEFAA
:100120003483238396838583908787831082089501
:10013000FC01118610860895CF93DF93FC01DB014B
:1001400021813281E9018A819B8113969C938E9350
:1001500012978181928115969C938E9314978A8130
:100160009B81EC017D836C83E9017B836A837283CD
:1001700061831996FC93EE93189780818F5F80833B
:10018000DF91CF910895CF93DF93EB01488159819F
:100190004F3F2FEF520731F4DC011796ED91FC91A0
:1001A000189717C0FC013396DC0115962D913C91F0
:1001B0001697D9012D913C914217530750F00280B8
:1001C000F381E02DA281B3812D913C914217530719
:1001D000B0F7A281B381BB83AA831596DC93CE933B
:1001E0001497FD83EC83D383C28399878887FC01AE
:1001F00020812F5F2083DF91CF910895FC01A281A0
:10020000B3818481958115969C938E931497A481D4
:10021000B5818281938113969C938E931297A085CA
:10022000B18511968D919C911297E817F90731F4D9
:100230008481958112969C938E93119711861086D6
:100240008C9181508C93089580E480937C0087E8A2
:1002500080937A000895813081F0E1ECF0E08081B4
:1002600088618083E2ECF0E080818660808383E3B4
:100270008093C4001092C5000895E9ECF0E08081FD
:1002800088618083EAECF0E080818660808383E38C
:100290008093CC001092CD000895813029F4809194
:1002A000C800882374F008958091C00088238CF4DE
:1002B000A6ECB0E0E0ECF0E08C9180818823E4F3E0
:1002C0000895AEECB0E0E8ECF0E08C9180818823FA
:1002D000E4F30895813041F0E0ECF0E08081882380
:1002E000ECF78091C6000895E8ECF0E08081882367
:1002F000ECF78091CE000895AF92BF92CF92DF923B
:10030000EF92FF920F931F93CF93DF9380918C070F
:10031000813009F08EC080E0DDDF8093260780E029
:10032000BCDF2091260722FB002700F910E0012BFB
:1003300019F131E030932E07322F317021FBAA24BE
:10034000A0F8B12CA114B10431F4332391F081E071
:100350008093300739C0AB2861F0311104C082E0CE
:100360008093300731C0332321F083E0809330073E
:100370002BC01092300728C031E030932F07322F66
:10038000317021FBCC24C0F8D12CC114D10431F43C
:10039000332391F081E08093310716C0CD2861F0BE
:1003A000311104C082E0809331070EC0332321F065
:1003B00083E08093310708C010922F0710922E0718
:1003C00010923107109230078091260721E083FBBD
:1003D000EE24E0F8F12C83FF20E02093280791E041
:1003E00084FB222720F9C22F20E0D22F84FF90E047
:1003F00090932707209759F4EF28A9F081E0809384
:100400002C0710922B0782E080932A0712C0CD2B75
:1004100051F0EF2841F410922C0781E080932B07D4
:1004200080932A0706C010922C0710922B07109277
:100430002A0780918C07882319F010928C0707C037
:100440008091C00088231CF481E080938C07DF91A9
:10045000CF911F910F91FF90EF90DF90CF90BF90C1
:10046000AF90089510928C0747DF83E090E06DD540
:10047000FBCFAF92BF92CF92DF92EF92FF920F939A
:10048000A12CB12CC12CD12CE12CF12C082F20E077
:1004900030E045E550E063E071E082E392E0F1D2C4
:1004A0000F91FF90EF90DF90CF90BF90AF900895A5
:1004B00080918D078130A9F018F0823059F10895AC
:1004C00080912F078823F1F191E090938D0720917F
:1004D000310783E0821B8093000110922D0798B9A9
:1004E000089580912F07882389F080912D0790919E
:1004F0003107891720F48F5F80932D07089582E0DC
:1005000080938D0710922D0718B8089510928D07CB
:1005100018B8089580912F07882389F080912D07BE
:1005200090910001891720F48F5F80932D07089523
:1005300081E080938D0710922D0788B9089510925D
:100540008D0718B8089510928D07B2DF83E090E010
:10055000FCD4FBCFAF92BF92CF92DF92EF92FF928B
:100560000F93A12CB12CC12CD12CE12CF12C082FF4
:1005700020E030E045E550E067E171E083EA92E099
:1005800080D20F91FF90EF90DF90CF90BF90AF900F
:10059000089580918F078130B9F018F0823069F1A9
:1005A000089580912E07882309F440C081E080934C
:1005B0008F079091300783E0891B80930001109290
:1005C0002D0782E088B9089580912E07882389F04D
:1005D00080912D0790913007891720F48F5F8093C9
:1005E0002D07089582E080938F0710922D0718B889
:1005F000089510928F0718B8089580912E078823C8
:1006000091F080912D0790910001891720F48F5F60
:1006100080932D07089581E080938F0710922D0716
:1006200082E088B9089510928F0718B80895109243
:100630008F07AFDF83E090E088D4FBCFAF92BF920B
:10064000CF92DF92EF92FF920F93A12CB12CC12C8D
:10065000D12CE12CF12C082F20E030E045E550E0D2
:1006600066E271E087E193E00CD20F91FF90EF908A
:10067000DF90CF90BF90AF90089580918E07882330
:1006800019F08130A1F030C080912B07811104C096
:1006900080912C07882339F081E080938E07109297
:1006A000290785B9089515B810928E07089580918D
:1006B000290790912A07891778F490912B079111B7
:1006C00004C090912C07992339F08F5F80932907FC
:1006D00081E080938E07089510922B0710922C07CB
:1006E00015B810928E07089510928E0708951092F3
:1006F0008E07C3DF81E090E028D4FBCFAF92BF929A
:10070000CF92DF92EF92FF920F93A12CB12CC12CCC
:10071000D12CE12CF12C082F20E030E045E550E011
:1007200065E371E087E793E0ACD10F91FF90EF9024
:10073000DF90CF90BF90AF90089511B88FEF82B93E
:1007400084B915B887B918B87FDD80E084DD81E011
:1007500090DE81E0FFDE81E071DF81E0CFDF84D2D7
:1007600080E090E0089531E1FC013083319722E28E
:1007700020833197A3E3A0833197608331977083FF
:1007800031971082319760E86083319710823197FA
:1007900062E06083319763E06083319764E0608357
:1007A000319765E06083319766E06083319767E059
:1007B0006083319768E06083319769E060833197A7
:1007C00060E1608331973083319732E13083319734
:1007D00033E13083319734E13083319735E1308331
:1007E000319736E13083319737E13083319738E103
:1007F0003083319739E13083319730E2308331975C
:1008000031E2308331972083319723E2208331977F
:10081000408331975083319726E22083319727E236
:100820002083319728E22083319729E22083319772
:1008300020E32083319721E3208386970895109247
:1008400089008CE7809388008BE080938100EFE63D
:10085000F0E0808182608083A0918A07B0918B074D
:10086000CD91CDBFDD91DEBFFF91EF91DF91CF91B3
:10087000BF91AF919F918F917F916F915F914F91B8
:100880003F912F911F910F91FF90EF90DF90CF90AC
:10089000BF90AF909F908F907F906F905F904F90A0
:1008A0003F902F901F900F900FBE0F90089581E002
:1008B00008950F920FB6F8940F921F9211242F9261
:1008C0003F924F925F926F927F928F929F92AF92E0
:1008D000BF92CF92DF92EF92FF920F931F932F93CD
:1008E0003F934F935F936F937F938F939F93AF93B8
:1008F000BF93CF93DF93EF93FF93A0918A07B091BB
:100900008B070DB60D920EB60D9270D3A0918A078B
:10091000B0918B07CD91CDBFDD91DEBFFF91EF91FF
:10092000DF91CF91BF91AF919F918F917F916F9107
:100930005F914F913F912F911F910F91FF90EF90F9
:10094000DF90CF90BF90AF909F908F907F906F90EF
:100950005F904F903F902F901F900F900FBE0F9081
:1009600008950F920FB6F8940F921F9211242F92B0
:100970003F924F925F926F927F928F929F92AF922F
:10098000BF92CF92DF92EF92FF920F931F932F931C
:100990003F934F935F936F937F938F939F93AF9307
:1009A000BF93CF93DF93EF93FF93A0918A07B0910A
:1009B0008B070DB60D920EB60D9285D117D3A0916F
:1009C0008A07B0918B07CD91CDBFDD91DEBFFF913E
:1009D000EF91DF91CF91BF91AF919F918F917F91D7
:1009E0006F915F914F913F912F911F910F91FF90C8
:1009F000EF90DF90CF90BF90AF909F908F907F90BF
:100A00006F905F904F903F902F901F900F900FBE70
:100A10000F900895A6DF1895CF93DF93EC01E09136
:100A20008A07F0918B079383828380913A07909194
:100A30003B07C817D90760F460918A0770918B074C
:100A400080915007909151076E5F7F4F9CDB16C0DD
:100A500060918A0770918B0780915207909153079C
:100A60006E5F7F4F90DB8091010190910201C8176A
:100A7000D90720F4D0930201C0930101DF91CF91F7
:100A800008954F925F926F927F928F929F92AF9252
:100A9000BF92CF92DF92EF92FF920F931F93CF936B
:100AA000DF935C014B013A01290181E290E00DDB0B
:100AB000EC01892B09F4C6C0C114D10409F0BEC0F1
:100AC000C30103DB988F8F8B009719F4CE0121DBD4
:100AD000B9C0A30165EA70E0F5D293012150310954
:100AE0008F89988D3C01620E731E48E050E0B4017E
:100AF000CE014996EED218A2102F043008F013E070
:100B00001E8B6E0182E0C80ED11CC60111DBCE0126
:100B10000C960EDBD987C88784E090E0811B910991
:100B20009D878C87DB8BCA8BA201B501C3011BDEBD
:100B300099838883E114F10419F0F701D183C0830C
:100B40000FB6F8940F9280913C078F5F80933C071B
:100B500080918A0790918B07892B69F5D0938B0739
:100B6000C0938A0780913C078130A1F586E697E023
:100B7000D1DA8FE697E0CEDA88E797E0CBDA81E842
:100B800097E0C8DA8DE597E0C5DA84E597E0C2DA48
:100B900087E497E0BFDA8EE397E0BCDA8DE597E073
:100BA000909353078093520784E597E09093510701
:100BB000809350070FC08091370781110BC0E091DF
:100BC0008A07F0918B078689081720F0D0938B074E
:100BD000C0938A078E8990913907981710F48093F3
:100BE0003907909132079F5F9093320790913807B1
:100BF000981710F48093380790E09C01220F331F60
:100C0000220F331F220F331F820F931FB6018A5901
:100C1000984F92DA0F900FBE80913707882351F0DA
:100C2000E0918A07F0918B078689801728F441DECE
:100C300081E009C081E007C081E005C0D88ECF8A7D
:100C4000C60147CF8FEFDF91CF911F910F91FF909A
:100C5000EF90DF90CF90BF90AF909F908F907F905C
:100C60006F905F904F900895AF92BF92CF92DF92B6
:100C7000EF92FF920F93A12CB12CC12CD12CE12C1F
:100C8000F12C00E020E030E045E550E062E471E066
:100C900080EC97E0F6DE813041F4F89480933707DA
:100CA00010923B0710923A07CADD0F91FF90EF9028
:100CB000DF90CF90BF90AF900895809136078F5FFF
:100CC0008093360708950F931F93CF93DF938091FE
:100CD00036078111AFC080913A0790913B0701968A
:100CE00090933B0780933A0780913A0790913B0796
:100CF000892B99F5809152079091530720915007C5
:100D00003091510730935307209352079093510726
:100D100080935007809133078F5F80933307E09172
:100D20005207F09153078081811107C08FEF9FEF29
:100D3000909302018093010110C0E0915207F0915D
:100D400053070580F681E02D0680F781E02D828132
:100D50009381909302018093010120913A07309191
:100D60003B0780910101909102012817390708F48F
:100D700066C0E0915207F09153078081882399F073
:100D8000E0915207F09153070580F681E02DC6816E
:100D9000D7818A819B8120913A0730913B072817A0
:100DA0003907F8F419C08FEF9FEF909302018093F9
:100DB000010145C0E0915207F09153070580F6818B
:100DC000E02DC681D7818A819B8120913A0730919D
:100DD0003B072817390728F49093020180930101FB
:100DE0002EC08E010E5F1F4FC80108DA8C899D89C5
:100DF000892B19F0CE010C9601DA8E899091380773
:100E0000981710F48093380790E09C01220F331F4D
:100E1000220F331F220F331F820F931FB8018A59ED
:100E2000984F8AD9E0915207F09153078081811140
:100E3000C1CFB9CF809135078F5F80933507DF91A0
:100E4000CF911F910F910895CF92DF92EF92FF9271
:100E50000F931F93CF93DF930FB6F8940F92809167
:100E600036078150809336078091360781115FC025
:100E700080913C0781112FC05DC0D7011596ED917F
:100E8000FC911697C681D781CE010C96B7D98E01F9
:100E90000E5F1F4FC801B2D98E89909138079817FD
:100EA00010F48093380790E09C01220F331F220F2B
:100EB000331F220F331F820F931FB8018A59984F97
:100EC0003BD9E0918A07F0918B079E898689981714
:100ED00058F0DC2C09C0D12C0F2EF7E4EF2EF7E0F0
:100EE000FF2EF02DCC24C394F70180818111C5CF52
:100EF00080913507882379F080913507882391F018
:100F0000E2DE809135078150809335078091350767
:100F10008111F6CF07C0F1E0DF1621F08091340790
:100F2000813039F410923407C4DC81E003C080E0E2
:100F300001C080E00F900FBEDF91CF911F910F9104
:100F4000FF90EF90DF90CF900895CF93DF93EC0167
:100F5000892B91F0B2DE80913A0790913B07C80F40
:100F6000D91F80918A0790918B07029647D9CE01AD
:100F700053DD6ADF811101C09CDCDF91CF910895C0
:100F80000F2EFEE3EF2EF7E0FF2EF02DC6E6D7E0A2
:100F900080913D07882329F190DED7011C9154DF11
:100FA0001123F9F00FB6F8940F92D7011596ED9131
:100FB000FC91169706811781C80102961FD980916E
:100FC0003C07815080933C0780913D07815080937E
:100FD0003D070F900FBEF8018789908D9AD8C80100
:100FE00098D888818230A0F264DCD2CF8091360715
:100FF000811113C08091380790E0FC01EE0FFF1FB4
:10100000EE0FFF1FEE0FFF1F8E0F9F1FFC01EA590F
:10101000F84F8081882329F01BC081E0809334073A
:101020000895809138078150809338078091380760
:1010300090E0FC01EE0FFF1FEE0FFF1FEE0FFF1FF2
:101040008E0F9F1FFC01EA59F84F8081882349F3D6
:101050008091380790E09C01220F331F220F331F2D
:10106000220F331F280F391FD901AA59B84F1196E3
:10107000ED91FC9112970280F381E02D1296FC9382
:10108000EE9311972759384FE217F30729F422817D
:101090003381FD0132832183FC01EE0FFF1FEE0F30
:1010A000FF1FEE0FFF1F8E0F9F1FFC01EA59F84F25
:1010B0000180F281E02D8681978190938B07809348
:1010C0008A070895DC0101C06D9341505040E0F75C
:1010D0000895FB01DC014150504048F001900D9211
:1010E0000020C9F701C01D9241505040E0F708951B
:0410F000F894FFCFA2
:1010F4000AFFFF5452414E534D495353494F4E53E7
:1011040065635461736B00466F72776172645365F3
:10111400635461736B0052657665727365536563DE
:101124005461736B00534552564F53656354617356
:081134006B0049444C4500002A
:00000001FF
