:1000000045C0000060C000005EC000005CC0000091
:100010005AC0000058C0000056C0000054C0000084
:1000200052C0000050C000004EC000004CC0000094
:100030004AC000006EC3000046C0000044C000007B
:1000400042C0000040C000003EC000003CC00000B4
:100050003AC0000038C0000036C0000034C00000C4
:1000600032C0000030C000002EC000002CC00000D4
:100070002AC0000028C0000026C0000024C00000E4
:1000800022C0000020C000001EC0000011241FBEBE
:10009000CFEFD0E4DEBFCDBF11E0A0E0B1E0E2EFF2
:1000A000FDE000E00BBF02C007900D92AE32B10739
:1000B000D9F727E0AEE2B1E001C01D92AA36B2073F
:1000C000E1F7C1D194C69CCFCF93DF93EC0174D4F8
:1000D00020912E0130912F01C9018C0F9D1F8C3D65
:1000E00045E0940758F42817390758F4E901C05D32
:1000F000DE4F90932F0180932E0105C0C0E0D0E029
:1001000002C0C0E0D0E01FD5CE01DF91CF910895AD
:100110000895FC010396928381832FEF3FEF348390
:100120002383968385839087878310820895FC01BB
:10013000118610860895CF93DF93FC01DB012181A6
:100140003281E9018A819B8113969C938E93129749
:100150008181928115969C938E9314978A819B81BD
:10016000EC017D836C83E9017B836A837283618305
:100170001996FC93EE93189780818F5F8083DF91AF
:10018000CF910895CF93DF93EB01488159814F3F81
:100190002FEF520731F4DC011796ED91FC9118977F
:1001A00017C0FC013396DC0115962D913C911697F2
:1001B000D9012D913C914217530750F00280F381F1
:1001C000E02DA281B3812D913C9142175307B0F7E6
:1001D000A281B381BB83AA831596DC93CE93149737
:1001E000FD83EC83D383C28399878887FC012081B8
:1001F0002F5F2083DF91CF910895FC01A281B3810D
:100200008481958115969C938E931497A481B581D2
:100210008281938113969C938E931297A085B185CA
:1002200011968D919C911297E817F90731F484810A
:10023000958112969C938E931197118610868C91BE
:1002400081508C93089580916807811155C08091E9
:100250000201811129C08091000190910101863E27
:1002600023E0920708F04DC001969093010180931E
:100270000001833F914021F081E080930C0702C090
:1002800010920C07E0910D07F0E0ED5FFE4F8081CA
:100290008BB980910D07873019F410920D072CC08F
:1002A0008F5F80930D0728C0813059F58091000140
:1002B00090910101009729F101979093010180939A
:1002C0000001833F914021F081E080930C0702C040
:1002D00010920C07E0910D07F0E0ED5FFE4F80817A
:1002E0008BB980910D07811104C087E080930D07C1
:1002F00003C0815080930D0780916807811110928F
:1003000068070895109268079EDF83E090E09CD410
:10031000FBCFAF92BF92CF92DF92EF92FF920F93FB
:10032000A12CB12CC12CD12CE12CF12C082F20E0D8
:1003300030E045E550E06DE071E082E891E020D2E8
:100340000F91FF90EF90DF90CF90BF90AF90089506
:1003500080916907882319F0813099F14BC0009989
:100360000BC080B1809581FD07C081E08093690753
:1003700088B910920201089580B1809581FF0AC06A
:10038000009B08C081E08093690792E098B9809350
:100390000201089518B880910C07882371F08091AC
:1003A000000190910101833F914018F410920201E5
:1003B000089581E080930201089582E08093020114
:1003C0000895009907C080B1809581FD03C081E048
:1003D00088B9089580B1809581FF05C0009B03C056
:1003E00082E088B908951092690718B882E0809376
:1003F0000201089510926907089510926907A8DF15
:100400008AE090E021D4FBCFAF92BF92CF92DF92EF
:10041000EF92FF920F93A12CB12CC12CD12CE12C87
:10042000F12C082F20E030E045E550E06AE171E072
:100430008DEF91E0A5D10F91FF90EF90DF90CF90DD
:10044000BF90AF90089511B88FEF82B987B918B8EF
:100450008AB91BB881E05DDF81E0D6DF84D280E01D
:1004600090E0089531E1FC013083319722E220834E
:100470003197A3E3A08331976083319770833197DD
:100480001082319760E8608331971082319762E083
:100490006083319763E06083319764E060833197D4
:1004A00065E06083319766E06083319767E0608341
:1004B000319768E06083319769E06083319760E14C
:1004C000608331973083319732E13083319733E164
:1004D0003083319734E13083319735E13083319780
:1004E00036E13083319737E13083319738E130831B
:1004F000319739E13083319730E23083319731E2FF
:10050000308331972083319723E2208331974083D2
:1005100031975083319726E22083319727E2208359
:10052000319728E22083319729E22083319720E315
:100530002083319721E320838697089510928900C4
:100540008CE7809388008BE080938100EFE6F0E0F9
:10055000808182608083A0916607B0916707CD910A
:10056000CDBFDD91DEBFFF91EF91DF91CF91BF91C4
:10057000AF919F918F917F916F915F914F913F913B
:100580002F911F910F91FF90EF90DF90CF90BF9030
:10059000AF909F908F907F906F905F904F903F9023
:1005A0002F901F900F900FBE0F90089581E0089537
:1005B0000F920FB6F8940F921F9211242F923F9230
:1005C0004F925F926F927F928F929F92AF92BF9263
:1005D000CF92DF92EF92FF920F931F932F933F934F
:1005E0004F935F936F937F938F939F93AF93BF933B
:1005F000CF93DF93EF93FF93A0916607B0916707C6
:100600000DB60D920EB60D9270D3A0916607B09103
:100610006707CD91CDBFDD91DEBFFF91EF91DF91F7
:10062000CF91BF91AF919F918F917F916F915F918A
:100630004F913F912F911F910F91FF90EF90DF907D
:10064000CF90BF90AF909F908F907F906F905F9072
:100650004F903F902F901F900F900FBE0F900895D6
:100660000F920FB6F8940F921F9211242F923F927F
:100670004F925F926F927F928F929F92AF92BF92B2
:10068000CF92DF92EF92FF920F931F932F933F939E
:100690004F935F936F937F938F939F93AF93BF938A
:1006A000CF93DF93EF93FF93A0916607B091670715
:1006B0000DB60D920EB60D9285D117D3A091660797
:1006C000B0916707CD91CDBFDD91DEBFFF91EF9176
:1006D000DF91CF91BF91AF919F918F917F916F915A
:1006E0005F914F913F912F911F910F91FF90EF904C
:1006F000DF90CF90BF90AF909F908F907F906F9042
:100700005F904F903F902F901F900F900FBE0F90D3
:100710000895A6DF1895CF93DF93EC01E09166076B
:10072000F091670793838283809116079091170752
:10073000C817D90760F460916607709167078091C8
:100740002C0790912D076E5F7F4F1CDD16C06091C6
:1007500066077091670780912E0790912F076E5F53
:100760007F4F10DD80910B0190910C01C817D907C4
:1007700020F4D0930C01C0930B01DF91CF91089529
:100780004F925F926F927F928F929F92AF92BF92A1
:10079000CF92DF92EF92FF920F931F93CF93DF934D
:1007A0005C014B013A01290181E290E08DDCEC0112
:1007B000892B09F4C6C0C114D10409F0BEC0C3011D
:1007C00083DC988F8F8B009719F4CE01A1DCB9C020
:1007D000A30165EA70E0F5D29301215031098F89B8
:1007E000988D3C01620E731E48E050E0B401CE01CA
:1007F0004996EED218A2102F043008F013E01E8B99
:100800006E0182E0C80ED11CC60191DCCE010C96AF
:100810008EDCD987C88784E090E0811B91099D8791
:100820008C87DB8BCA8BA201B501C3011BDE9983C8
:100830008883E114F10419F0F701D183C0830FB666
:10084000F8940F92809118078F5F8093180780911A
:10085000660790916707892B69F5D0936707C09366
:100860006607809118078130A1F582E497E051DC9A
:100870008BE497E04EDC84E597E04BDC8DE597E078
:1008800048DC89E397E045DC80E397E042DC83E2E3
:1008900097E03FDC8AE197E03CDC89E397E09093C6
:1008A0002F0780932E0780E397E090932D07809386
:1008B0002C070FC08091130781110BC0E0916607D0
:1008C000F09167078689081720F0D0936707C093D7
:1008D00066078E8990911507981710F48093150775
:1008E00090910E079F5F90930E07909114079817B1
:1008F00010F48093140790E09C01220F331F220F05
:10090000331F220F331F820F931FB6018E5B984F48
:1009100012DC0F900FBE80911307882351F0E091F5
:100920006607F09167078689801728F441DE81E029
:1009300009C081E007C081E005C0D88ECF8AC6011A
:1009400047CF8FEFDF91CF911F910F91FF90EF90E5
:10095000DF90CF90BF90AF909F908F907F906F90DF
:100960005F904F900895AF92BF92CF92DF92EF9237
:10097000FF920F93A12CB12CC12CD12CE12CF12C86
:1009800000E020E030E045E550E068E271E08FE310
:1009900096E0F6DE813041F4F894809313071092CC
:1009A000170710921607CADD0F91FF90EF90DF90A6
:1009B000CF90BF90AF900895809112078F5F809382
:1009C000120708950F931F93CF93DF93809112071F
:1009D0008111AFC0809116079091170701969093EF
:1009E0001707809316078091160790911707892B98
:1009F00099F580912E0790912F0720912C07309127
:100A00002D0730932F0720932E0790932D07809367
:100A10002C0780910F078F5F80930F07E0912E07BF
:100A2000F0912F078081811107C08FEF9FEF909386
:100A30000C0180930B0110C0E0912E07F0912F075D
:100A40000580F681E02D0680F781E02D828193817B
:100A500090930C0180930B0120911607309117079A
:100A600080910B0190910C012817390708F466C09A
:100A7000E0912E07F0912F078081882399F0E09173
:100A80002E07F0912F070580F681E02DC681D781D2
:100A90008A819B8120911607309117072817390703
:100AA000F8F419C08FEF9FEF90930C0180930B0126
:100AB00045C0E0912E07F0912F070580F681E02DCB
:100AC000C681D7818A819B812091160730911707B3
:100AD0002817390728F490930C0180930B012EC03E
:100AE0008E010E5F1F4FC80188DB8C899D89892B81
:100AF00019F0CE010C9681DB8E899091140798171E
:100B000010F48093140790E09C01220F331F220FF2
:100B1000331F220F331F820F931FB8018E5B984F34
:100B20000ADBE0912E07F0912F0780818111C1CF60
:100B3000B9CF809111078F5F80931107DF91CF911B
:100B40001F910F910895CF92DF92EF92FF920F9332
:100B50001F93CF93DF930FB6F8940F9280911207F3
:100B60008150809312078091120781115FC080919C
:100B7000180781112FC05DC0D7011596ED91FC912A
:100B80001697C681D781CE010C9637DB8E010E5F9A
:100B90001F4FC80132DB8E8990911407981710F40B
:100BA0008093140790E09C01220F331F220F331F04
:100BB000220F331F820F931FB8018E5B984FBBDA51
:100BC000E0916607F09167079E898689981758F02B
:100BD000DC2C09C0D12C0F2EF3E2EF2EF7E0FF2E14
:100BE000F02DCC24C394F70180818111C5CF809171
:100BF0001107882379F080911107882391F0E2DEB4
:100C00008091110781508093110780911107811104
:100C1000F6CF07C0F1E0DF1621F080911007813098
:100C200039F410921007C4DC81E003C080E001C0F9
:100C300080E00F900FBEDF91CF911F910F91FF9039
:100C4000EF90DF90CF900895CF93DF93EC01892B45
:100C500091F0B2DE8091160790911707C80FD91F47
:100C600080916607909167070296C7DACE0153DD3F
:100C70006ADF811101C09CDCDF91CF9108950F2EB6
:100C8000FAE1EF2EF7E0FF2EF02DC2E4D7E08091DD
:100C90001907882329F190DED7011C9154DF112315
:100CA000F9F00FB6F8940F92D7011596ED91FC91DB
:100CB000169706811781C80102969FDA809118075E
:100CC00081508093180780911907815080931907EC
:100CD0000F900FBEF8018789908D1ADAC80118DAD3
:100CE00088818230A0F264DCD2CF8091120781111A
:100CF00013C08091140790E0FC01EE0FFF1FEE0F70
:100D0000FF1FEE0FFF1F8E0F9F1FFC01EE5BF84FC2
:100D10008081882329F01BC081E08093100708950B
:100D2000809114078150809314078091140790E0FC
:100D3000FC01EE0FFF1FEE0FFF1FEE0FFF1F8E0FC8
:100D40009F1FFC01EE5BF84F8081882349F380915F
:100D5000140790E09C01220F331F220F331F220F34
:100D6000331F280F391FD901AE5BB84F1196ED9193
:100D7000FC9112970280F381E02D1296FC93EE9382
:100D800011972B5B384FE217F30729F42281338147
:100D9000FD0132832183FC01EE0FFF1FEE0FFF1FC9
:100DA000EE0FFF1F8E0F9F1FFC01EE5BF84F0180BF
:100DB000F281E02D86819781909367078093660783
:100DC0000895DC0101C06D9341505040E0F7089553
:100DD000FB01DC014150504048F001900D92002091
:100DE000C9F701C01D9241505040E0F70895F894B2
:020DF000FFCF33
:100DF200F3010201030206040C0809FFFF4D6F74A0
:100E02006F725365635461736B00427574746F6ED5
:0E0E12005365635461736B0049444C45000006
:00000001FF
