:1000000045C0000060C000005EC000005CC0000091
:100010005AC0000058C0000056C0000054C0000084
:1000200052C0000050C000004EC000004CC0000094
:100030004AC00000FDC2000046C0000044C00000ED
:1000400042C0000040C000003EC000003CC00000B4
:100050003AC0000038C0000036C0000034C00000C4
:1000600032C0000030C000002EC000002CC00000D4
:100070002AC0000028C0000026C0000024C00000E4
:1000800022C0000020C000001EC0000011241FBEBE
:10009000CFEFD0E4DEBFCDBF11E0A0E0B1E0E0E102
:1000A000FDE000E00BBF02C007900D92AC31B1073C
:1000B000D9F727E0ACE1B1E001C01D92A635B20747
:1000C000E1F754D123C69CCFCF93DF93EC0103D447
:1000D00020911C0130911D01C9018C0F9D1F8C3D89
:1000E00045E0940758F42817390758F4E901C25E2F
:1000F000DE4F90931D0180931C0105C0C0E0D0E04D
:1001000002C0C0E0D0E0AED4CE01DF91CF9108951F
:100110000895FC010396928381832FEF3FEF348390
:100120002383968385839087878310820895FC01BB
:10013000118610860895CF93DF93FC01DB012181A6
:100140003281E9018A819B8113969C938E93129749
:100150008181928115969C938E9314978A819B81BD
:10016000EC017D836C83E9017B836A837283618305
:100170001996FC93EE93189780818F5F8083DF91AF
:10018000CF910895CF93DF93EB01488159814F3F81
:100190002FEF520731F4DC011796ED91FC9118977F
:1001A00017C0FC013396DC0115962D913C911697F2
:1001B000D9012D913C914217530750F00280F381F1
:1001C000E02DA281B3812D913C9142175307B0F7E6
:1001D000A281B381BB83AA831596DC93CE93149737
:1001E000FD83EC83D383C28399878887FC012081B8
:1001F0002F5F2083DF91CF910895FC01A281B3810D
:100200008481958115969C938E931497A481B581D2
:100210008281938113969C938E931297A085B185CA
:1002200011968D919C911297E817F90731F484810A
:10023000958112969C938E931197118610868C91BE
:1002400081508C930895813081F0E1ECF0E0808161
:1002500088618083E2ECF0E080818660808383E3C4
:100260008093C4001092C5000895E9ECF0E080810D
:1002700088618083EAECF0E080818660808383E39C
:100280008093CC001092CD000895813029F48091A4
:10029000C800882374F008958091C00088238CF4EE
:1002A000A6ECB0E0E0ECF0E08C9180818823E4F3F0
:1002B0000895AEECB0E0E8ECF0E08C91808188230A
:1002C000E4F30895813041F0E0ECF0E08081882390
:1002D000ECF78091C6000895E8ECF0E08081882377
:1002E000ECF78091CE00089580915507813049F454
:1002F00080E0E8DF8093FA0680E0C7DF8091FA06AD
:1003000088B980915507882319F0109255070895F0
:100310008091C00088231CF481E0809355070895E4
:1003200010925507E1DF83E090E01DD4FBCFAF9240
:10033000BF92CF92DF92EF92FF920F93A12CB12C3C
:10034000C12CD12CE12CF12C082F20E030E045E528
:1003500050E062E071E080E991E0A1D10F91FF905F
:10036000EF90DF90CF90BF90AF9008958FEF87B957
:1003700018B880E068DF81E0DADF84D280E090E0C6
:10038000089531E1FC013083319722E220833197D7
:10039000A3E3A083319760833197708331971082F4
:1003A000319760E8608331971082319762E0608313
:1003B000319763E06083319764E06083319765E053
:1003C0006083319766E06083319767E0608331979F
:1003D00068E06083319769E06083319760E1608312
:1003E00031973083319732E13083319733E1308375
:1003F000319734E13083319735E13083319736E1FD
:100400003083319737E13083319738E1308331974A
:1004100039E13083319730E23083319731E23083F4
:1004200031972083319723E220833197408331979E
:100430005083319726E22083319727E2208331973A
:1004400028E22083319729E22083319720E320831B
:10045000319721E3208386970895109289008CE7D5
:10046000809388008BE080938100EFE6F0E080814C
:1004700082608083A0915307B0915407CD91CDBF86
:10048000DD91DEBFFF91EF91DF91CF91BF91AF91F1
:100490009F918F917F916F915F914F913F912F919C
:1004A0001F910F91FF90EF90DF90CF90BF90AF9092
:1004B0009F908F907F906F905F904F903F902F9084
:1004C0001F900F900FBE0F90089581E008950F9236
:1004D0000FB6F8940F921F9211242F923F924F92D1
:1004E0005F926F927F928F929F92AF92BF92CF92C4
:1004F000DF92EF92FF920F931F932F933F934F93AF
:100500005F936F937F938F939F93AF93BF93CF939B
:10051000DF93EF93FF93A0915307B09154070DB66B
:100520000D920EB60D9270D3A0915307B09154075F
:10053000CD91CDBFDD91DEBFFF91EF91DF91CF91E6
:10054000BF91AF919F918F917F916F915F914F91EB
:100550003F912F911F910F91FF90EF90DF90CF90DF
:10056000BF90AF909F908F907F906F905F904F90D3
:100570003F902F901F900F900FBE0F9008950F92F5
:100580000FB6F8940F921F9211242F923F924F9220
:100590005F926F927F928F929F92AF92BF92CF9213
:1005A000DF92EF92FF920F931F932F933F934F93FE
:1005B0005F936F937F938F939F93AF93BF93CF93EB
:1005C000DF93EF93FF93A0915307B09154070DB6BB
:1005D0000D920EB60D9285D117D3A0915307B0910D
:1005E0005407CD91CDBFDD91DEBFFF91EF91DF913B
:1005F000CF91BF91AF919F918F917F916F915F91BB
:100600004F913F912F911F910F91FF90EF90DF90AD
:10061000CF90BF90AF909F908F907F906F905F90A2
:100620004F903F902F901F900F900FBE0F90089506
:10063000A6DF1895CF93DF93EC01E0915307F0917B
:100640005407938382838091030790910407C8170E
:10065000D90760F46091530770915407809119078E
:1006600090911A076E5F7F4F8DDD16C06091530722
:100670007091540780911B0790911C076E5F7F4F0C
:1006800081DD8091000190910101C817D90720F404
:10069000D0930101C0930001DF91CF9108954F9253
:1006A0005F926F927F928F929F92AF92BF92CF9202
:1006B000DF92EF92FF920F931F93CF93DF935C0132
:1006C0004B013A01290181E290E0FEDCEC01892B2B
:1006D00009F4C6C0C114D10409F0BEC0C301F4DCE2
:1006E000988F8F8B009719F4CE0112DDB9C0A3014A
:1006F00065EA70E0F5D29301215031098F89988D18
:100700003C01620E731E48E050E0B401CE014996F0
:10071000EED218A2102F043008F013E01E8B6E01E9
:1007200082E0C80ED11CC60102DDCE010C96FFDCB2
:10073000D987C88784E090E0811B91099D878C87C9
:10074000DB8BCA8BA201B501C3011BDE99838883B1
:10075000E114F10419F0F701D183C0830FB6F894C6
:100760000F92809105078F5F809305078091530753
:1007700090915407892B69F5D0935407C093530780
:10078000809105078130A1F58FE297E0C2DC88E314
:1007900097E0BFDC81E497E0BCDC8AE497E0B9DC59
:1007A00086E297E0B6DC8DE197E0B3DC80E197E08C
:1007B000B0DC87E097E0ADDC86E297E090931C0721
:1007C00080931B078DE197E090931A078093190798
:1007D0000FC08091000781110BC0E0915307F09189
:1007E00054078689081720F0D0935407C093530705
:1007F0008E8990910207981710F4809302079091C8
:10080000FB069F5F9093FB0690910107981710F4E9
:100810008093010790E09C01220F331F220F331FAA
:10082000220F331F820F931FB601815D984F83DC27
:100830000F900FBE80910007882351F0E09153077D
:10084000F09154078689801728F441DE81E009C0C1
:1008500081E007C081E005C0D88ECF8AC60147CFAE
:100860008FEFDF91CF911F910F91FF90EF90DF906D
:10087000CF90BF90AF909F908F907F906F905F9040
:100880004F900895AF92BF92CF92DF92EF92FF9276
:100890000F93A12CB12CC12CD12CE12CF12C00E018
:1008A00020E030E045E550E066E171E08EEC95E057
:1008B000F6DE813041F4F89480930007109204072B
:1008C00010920307CADD0F91FF90EF90DF90CF9059
:1008D000BF90AF9008958091FF068F5F8093FF06D1
:1008E00008950F931F93CF93DF938091FF0681119B
:1008F000AFC080910307909104070196909304077D
:10090000809303078091030790910407892B99F541
:1009100080911B0790911C072091190730911A07AD
:1009200030931C0720931B0790931A078093190795
:100930008091FC068F5F8093FC06E0911B07F0918D
:100940001C078081811107C08FEF9FEF90930101F9
:100950008093000110C0E0911B07F0911C070580F7
:10096000F681E02D0680F781E02D828193819093BE
:1009700001018093000120910307309104078091C9
:100980000001909101012817390708F466C0E09131
:100990001B07F0911C078081882399F0E0911B07C9
:1009A000F0911C070580F681E02DC681D7818A81F0
:1009B0009B81209103073091040728173907F8F429
:1009C00019C08FEF9FEF909301018093000145C004
:1009D000E0911B07F0911C070580F681E02DC68190
:1009E000D7818A819B8120910307309104072817C2
:1009F000390728F490930101809300012EC08E01E5
:100A00000E5F1F4FC801F9DB8C899D89892B19F076
:100A1000CE010C96F2DB8E8990910107981710F4A5
:100A20008093010790E09C01220F331F220F331F98
:100A3000220F331F820F931FB801815D984F7BDB1C
:100A4000E0911B07F0911C0780818111C1CFB9CFC4
:100A50008091FE068F5F8093FE06DF91CF911F91FC
:100A60000F910895CF92DF92EF92FF920F931F9311
:100A7000CF93DF930FB6F8940F928091FF068150C9
:100A80008093FF068091FF0681115FC0809105076A
:100A900081112FC05DC0D7011596ED91FC9116977D
:100AA000C681D781CE010C96A8DB8E010E5F1F4F49
:100AB000C801A3DB8E8990910107981710F48093E9
:100AC000010790E09C01220F331F220F331F220FDA
:100AD000331F820F931FB801815D984F2CDBE0918B
:100AE0005307F09154079E898689981758F0DC2C9B
:100AF00009C0D12C0F2EF0E1EF2EF7E0FF2EF02DE4
:100B0000CC24C394F70180818111C5CF8091FE066A
:100B1000882379F08091FE06882391F0E2DE8091AF
:100B2000FE0681508093FE068091FE068111F6CF6D
:100B300007C0F1E0DF1621F08091FD06813039F425
:100B40001092FD06C4DC81E003C080E001C080E0BB
:100B50000F900FBEDF91CF911F910F91FF90EF90FB
:100B6000DF90CF900895CF93DF93EC01892B91F024
:100B7000B2DE8091030790910407C80FD91F8091BE
:100B8000530790915407029638DBCE0153DD6ADF9C
:100B9000811101C09CDCDF91CF9108950F2EF7E009
:100BA000EF2EF7E0FF2EF02DCFE2D7E08091060781
:100BB000882329F190DED7011C9154DF1123F9F02D
:100BC0000FB6F8940F92D7011596ED91FC911697F8
:100BD00006811781C801029610DB809105078150BC
:100BE00080930507809106078150809306070F9038
:100BF0000FBEF8018789908D8BDAC80189DA888168
:100C00008230A0F264DCD2CF8091FF06811113C044
:100C10008091010790E0FC01EE0FFF1FEE0FFF1F18
:100C2000EE0FFF1F8E0F9F1FFC01E15DF84F8081CB
:100C3000882329F01BC081E08093FD0608958091F0
:100C400001078150809301078091010790E0FC012A
:100C5000EE0FFF1FEE0FFF1FEE0FFF1F8E0F9F1FE8
:100C6000FC01E15DF84F8081882349F38091010701
:100C700090E09C01220F331F220F331F220F331FDE
:100C8000280F391FD901A15DB84F1196ED91FC9144
:100C900012970280F381E02D1296FC93EE93119748
:100CA0002E5C384FE217F30729F422813381FD01CE
:100CB00032832183FC01EE0FFF1FEE0FFF1FEE0FAB
:100CC000FF1F8E0F9F1FFC01E15DF84F0180F28135
:100CD000E02D868197819093540780935307089560
:100CE000DC0101C06D9341505040E0F70895FB01D5
:100CF000DC014150504048F001900D920020C9F7AE
:100D000001C01D9241505040E0F70895F894FFCF84
:100D1000FFFF5452414E534D495353494F4E536573
:0C0D2000635461736B0049444C450000B3
:00000001FF
